:020000041000EA
:1000000000B5324B212058609868022188439860DF
:10001000D860186158612E4B002199600221596106
:100020000121F02299502B49196001219960352056
:1000300000F044F80222904214D00621196600F024
:1000400034F8196E01211966002018661A6600F04E
:100050002CF8196E196E196E052000F02FF8012189
:100060000842F9D1002199601B49196000215960AB
:100070001A491B48016001219960EB211966A021F2
:10008000196600F012F800219960164914480160C1
:100090000121996001BC002800D000471248134993
:1000A000086003C880F30888084703B5996A0420EC
:1000B0000142FBD001200142F8D103BD02B5186610
:1000C0001866FFF7F2FF186E186E02BD00000240BE
:1000D000000000180000070000035F00212200005C
:1000E000F4000018222000A00001001008ED00E03C
:1000F00000000000000000000000000074B24E7A12
:1001000000200420F7010010C3010010C5010010F9
:10011000C1010010C1010010C1010010C101001097
:10012000C1010010C1010010C1010010C701001081
:10013000C1010010C1010010C9010010CB01001065
:10014000CD010010CD010010CD010010CD01001037
:10015000CD010010CD010010CD010010CD01001027
:10016000CD010010CD010010CD010010CD01001017
:10017000CD010010CD010010CD010010CD01001007
:10018000CD010010CD010010CD010010CD010010F7
:10019000CD010010CD010010CD010010CD010010E7
:1001A000CD010010CD010010CD010010CD010010D7
:1001B000CD010010CD010010CD010010CD010010C7
:1001C00000BE00BE00BE00BE00BE00BE00F04BF888
:1001D000103800BEF2EB8871D46200100463001086
:1001E0003402001090A31AE700202149086006C8D5
:1001F00081F3088810471F48006800282FD10DA4FC
:100200000ECC002902D000F012F8F9E71A491B4A77
:10021000002000E001C19142FCD1194988471949E9
:1002200088471949884700BEFDE701C901C29A42C3
:10023000FBD3704704630010C0000020180C00209E
:100240005C6E001000000420000004205C6E0010B2
:1002500000100420001004200000000070470B482C
:1002600002F0ACFF0047EFF30580C0B2704700001A
:1002700008ED00E0000000D0180C00209C150020C4
:10028000BD1B00105D030010791B001057560000C5
:1002900006005250ABB36053DC5B001006005250B6
:1002A000861C0302EC5B0010060052505422A29DF3
:1002B000F45B001005005250DE65F4685C6E0010BF
:1002C000F8B5C0460448054B10B5834203D0044B33
:1002D000002B00D0984710BD180C0020180C0020EF
:1002E0000000000006480749091A8B10C90FC918F9
:1002F00010B5491003D0044B002B00D0984710BD17
:10030000180C0020180C00200000000010B5074C4D
:100310002378002B09D1FFF7D5FF054B002B02D026
:10032000044800E000BF0123237010BD180D002019
:1003300000000000284D0010054B10B5002B03D025
:100340000449054800E000BFFFF7CCFF10BDC046E0
:10035000000000001C0D0020284D001070B582B078
:1003600003F0F6FC3849394803F0B8FE01211020AB
:1003700000F07AF80521112000F076F80121122012
:1003800000F072F80121132000F06EF8D0231B0654
:10039000802292025A625A612D492E4803F0EAFFE8
:1003A0000321042000F060F80321052000F05CF830
:1003B00000220121042000F06FF800220121052015
:1003C00000F06AF8244803F085FC03F0C1FD082220
:1003D0000021684603F066FB7F236A465370783B32
:1003E000D370684603F059FD00201C4B18E0082527
:1003F000FF2424021AE0C30F1B185B109E01F61A9B
:1004000073009B185B00164E9B5B23402B410B70C7
:10041000013201317D2AEEDD4B1C00220A700130D1
:10042000072807DCC207E2D40025FF24591C00225C
:100430001A70EFE76946094803F070FD094800F0BB
:1004400077FF002002B070BD40420F0000C00340A3
:10045000801A0600AC030020284D0010E40E002096
:10046000745C00108813000010B58300084A94469D
:1004700063441C6840226240C02414408022520120
:1004800013431C60C000034B9C466044416010BD98
:1004900004C001400040014080000B4B9C4660447A
:1004A00000290DD00823002A0CD00422134302682F
:1004B00053400C22134080225201104303607047C6
:1004C0000023F0E70022F1E704C00140EFF31080C1
:1004D00072B6034B1B68002BFBD0BFF35F8F7047D6
:1004E0002C0100D0BFF35F8F024B00221A6080F313
:1004F000108870472C0100D0F8B506000C001500DC
:10050000FFF7E4FFE308F718F15C0722224001231C
:1005100093400B4205D1DBB20B433B70FFF7E2FF88
:10052000F8BD2100280001F0C5FB0000034B1B684B
:1005300002201840431E9841C0B2704700C00640D8
:10054000002307E0054A9A189200BFF35F8F00214D
:10055000116001331F2BF5D97047C04640000034AD
:10056000054A1078431CDBB21370172B02D9130015
:1005700010221A707047C046F0020020074B9B689B
:10058000103080001950BFF35F8FBFF35F8F044BB3
:100590000021196082F310887047C04600ED00E02A
:1005A000240100D010B5091A081F0A4B9C4661446B
:1005B000094A914208D8C30706D440104005400DAF
:1005C000064B184380B210BD054B064A99210648D8
:1005D00001F0D6FAFC070000FE0F000000E0FFFF6C
:1005E0006C4D0010B04F00109C4D001010B5091A52
:1005F00004394C08090B08D14905490D064A114335
:100600000180064B2343438010BD054B054AA121C1
:10061000054801F0B5FAC04600F0FFFF00F8FFFF03
:10062000DC4D0010844F00109C4D001001238340CE
:10063000034A10681840431E9841C0B27047C04634
:1006400000E100E0002904D0034B1860034B186060
:100650007047034B1860FBE780E200E000E100E038
:1006600080E100E010B5012383401800FFF7EAFFA6
:1006700010BD0000024B9B6810308000C0587047CE
:1006800000ED00E070B504000D00EFF3108672B6C7
:100690000C4B1B68002BFBD0BFF35F8F2000FFF7D4
:1006A000E9FF094B984201D0A84205D13200290048
:1006B0002000FFF763FF70BD044B054A7C2105480D
:1006C00001F05EFA240100D0CD010010EC4D0010C5
:1006D000CC4F00109C4D0010F0B5CE46474680B57B
:1006E00083B006000D00EFF3108872B6564B1B68FE
:1006F000002BFBD0BFF35F8F544B9A68340010344B
:10070000A300D758524B9F4207D0AF4200D199E087
:100710000197504BFB1A2F2B09D942463900300064
:10072000FFF72CFF03B0C0BCB946B046F0BD3000A7
:10073000FFF77CFF814600213000FFF793FFBFF3F6
:100740005F8FFFF790FD002801D0844211D1012373
:10075000019C9C430022A368AB4212D00622A25601
:10076000002A0DDB53009B189B002200394CE41833
:10077000F1E72C21384B394AFF31394801F000FAB2
:100780002200AB4257D106256557002D39DB6B009F
:100790005B199A002F4B9B189A68A260DA79E27174
:1007A00006229A56A2719B795BB2002B10DABD200B
:1007B0000002A0806B005B199B00264AD318294ACF
:1007C00011789971157049463000FFF74BFFA4E787
:1007D000201D6B005B199B001E4A9B181A1D9B88ED
:1007E000D90A1C2907D15B055B1502335900511842
:1007F000FFF7D8FEDDE71C4B1C4AA721184801F083
:10080000BFF9002812D1002A0ED0FF239371184B94
:100810009380144A1378A371164B0E49641A6441ED
:1008200063431B0D1370CEE7094FF2E7201D1249F9
:10083000FFF7DCFEC7E76021104B084AFF3108488C
:1008400001F09EF9024F68E7240100D000ED00E0BE
:10085000CD010010F4020020004F00109C4F00104A
:100860009C4D00109A150020E84E0010BC4F00105F
:1008700000BDFFFFAAAA00002E030020244F001095
:1008800070B50400012606432D4BF31A2F2B28D8F0
:10089000FFF7E9FC00282BD0EFF3108C72B6294B40
:1008A0001B68002BFBD0BFF35F8F274D220024492C
:1008B000521A524155432D0D6DB2244B9B68800056
:1008C0001B58B3421BD00022032A32D853009B1876
:1008D0009B001B49CB189B795BB2AB421FD0013206
:1008E000F2E7C2211A4B1B4A49001B4801F048F9A4
:1008F00088211A4B174AFF31174801F041F9134B71
:100900009B68174A1A50174B1A78A2711D70BFF3D3
:100910005F8F0C4B00221A608CF3108870BD0800AA
:100920005300991889004118FF268E710E4A8A805B
:10093000E9E7CC210D4B074A4900074801F020F9AF
:10094000F4020020240100D0AAAA000000ED00E07B
:100950002C4F0010684F00109C4D0010544F001099
:10096000CD0100109A15002000BDFFFF604F001060
:100970000022044B02E0044902C30132072AFAD9DB
:100980007047C04600E400E080808080024B9C46B7
:1009900061448900016070474000003470B5050073
:1009A0000C00080000F014FD200000F0F9FD0849DB
:1009B000200000F039FDFFF7D3FD064B9C46604454
:1009C000800068602C75A400034BE55070BDC046E4
:1009D000E10C001040000034F01200200A4B1A68AD
:1009E000EFF3108172B61368002BFCD0BFF35F8F5A
:1009F000054B1B68BFF35F8F00221A6081F31088DC
:100A000040BF0020002170470C15002010B50029C0
:100A100022D003681B7B99421ED8174B9C46614429
:100A2000090183689C4661440C684968002A19D012
:100A300003681B7B9A4215D883680F48844662443A
:100A400012019A1810685368020001208B4201D8E5
:100A50000ED00020C0B210BD084B094A3B21094806
:100A600001F08EF8054B064A3B21064801F088F854
:100A7000A242EFD8EDE7C046FFFFFF0F3450001051
:100A8000B8520010FC4F001010B500291ED0037B97
:100A900099421BD84B005B18033B0468A44663448F
:100AA000002919D0002A1DD0914221D0002A25D03A
:100AB000047BA24222D80468500080180338201812
:100AC0008170197800291FD11A7010BD104B114A7E
:100AD0006821114801F054F8104B114A6F310E484B
:100AE00001F04EF80F4B0E4A70210B4801F048F808
:100AF0000D4B0B4A7121084801F042F8044B054A9E
:100B00006821054801F03CF841701A70DDE7C046E5
:100B1000685000102453001084500010D050001072
:100B200000530010DC500010E850001070B50600B3
:100B30000D001400002914D0002A14D080687368B6
:100B40009847002806D0220029003000FFF79CFFBC
:100B5000280007E02A0021003000FFF795FF200061
:100B600000E0100070BD0800FCE70000F0B583B0A5
:100B70000500009201930AAB1C780BAB1F78002C88
:100B800026D003685A7B944207D10123002B19D148
:100B9000002C3BD1200003B0F0BD002C0CD01A7B00
:100BA000944209D81A6863001B19033BD3189B7839
:100BB000002BEBD00123E9E73E4B3F4A68213F4839
:100BC00000F0DEFF3E4B3F4A65213F4800F0D8FF72
:100BD00003689C7B002CDBD012D01A7B94420FD888
:100BE00062001219033A19688C466244517899736D
:100BF000002900D1D9730023937053701370C7E795
:100C00002C4B2D4A68212D4800F0BAFF002C3AD019
:100C10002B681B7B9C4236D82C4BE3181B01AA681F
:100C200094466344009A1A60019A5A60089A9A603E
:100C3000099ADA602E68002C2BD030D0337B9C428E
:100C40002DD863001B19033B32689446634400228D
:100C50009A705A701A70717B22003000FFF766FF9D
:100C60007073844200D095E7287D009A019B00F0C4
:100C700023FC061E01D0002F17D00C9B002B00D1A7
:100C800088E71E7086E7124B124A3B210E4800F09F
:100C900077FF114B114AA521084800F071FF054B61
:100CA000054A6821054800F06BFF2868210000F024
:100CB0002BFEE2E76850001024530010845000100F
:100CC0000051001030530010FC4F0010FFFFFF0FC9
:100CD00034500010B8520010F84F00101453001098
:100CE000F0B5DE4657464E464546E0B58BB0099016
:100CF000002308938200B24BD658370032E0B14B44
:100D0000B14A3F21B14800F03BFFB14BB14A3B2112
:100D1000B14800F035FFB14BB14A8C21AE4800F02C
:100D20002FFFB04BAE4A9021AB4800F029FFA84BF3
:100D3000AD4A4021A84800F023FF2A686B68099853
:100D400000F0BAFB00239A4698467B68BFF35F8F9A
:100D500000221A6086F310884346002B51D10028E8
:100D600000D126E100F040FB02000B1EC7DB002093
:100D70000021069007917868EFF3108672B601683B
:100D80000029FCD0BFF35F8F396888464C7B002C6C
:100D900032D0BAD0097B8C42B7D8944965182D015E
:100DA000B9688C46654428686968801A99410029A9
:100DB000C3DC01D10028C0D10021404600F09AFDDB
:100DC000A042A8D12A686B6806920793AB68984640
:100DD000EB689A464346002BA3D0002CA7D03B6873
:100DE0001B7B9C42A3D8631EFA68D35C08931B024A
:100DF000184338610020A8E700239A46984600204F
:100E0000A3E7089B1B022343994651461800C0479D
:100E100005000E007A68EFF3108B72B61368594222
:100E20004B41D9B2002BF9D1BFF35F8F002E26DBE7
:100E3000002E52DD3B69002B53D04B4572D100F0A0
:100E4000D3FA02000B1E73DB010018005219734124
:100E5000984202D804D1914202D901225242D317BA
:100E6000002B6BDB00210491013103910294514668
:100E70000191414600913800FFF778FE49E03B6957
:100E8000002BD5D04B451CD1069A079B10001900AA
:100E9000521BB341994202D804D1904202D9012297
:100EA0005242D317002B12DB002104910131039130
:100EB000029451460191414600913800FFF756FED9
:100EC00027E04B4B464A9F21434800F059FE3D4BDB
:100ED0003D4A3F213D4800F053FE002E01D1002D38
:100EE000A8D13A68002C45D0537B9C422CD10121DB
:100EF00000293FD1D37B002B42D1D473002C52D098
:100F00003B681B7B9C424ED8FA68013C135D013361
:100F1000135500233B617A68BFF35F8F13608BF337
:100F200010881FE7324B2E4AA2212B4800F028FEE2
:100F3000244B254A3F21254800F022FE214B224A1E
:100F40003F21224800F01CFE002C0DD0137B9C4258
:100F50000AD863001B19033B1068844663449B78DE
:100F6000002BC5D00121C3E7224B234A6821234827
:100F700000F006FE224B234AF621204800F000FE36
:100F8000002B0AD0117B8B4207D85900CB18033BAA
:100F900011688C4663445C70AFE7164B164A6821B3
:100FA000164800F0EDFD0A4B0F4A40210A4800F0B8
:100FB000E7FD0BB0F0BCBB46B246A946A046F0BD6B
:100FC000F0120020285100108452001044510010EB
:100FD00034500010B8520010FC4F00108C5100101B
:100FE0009C520010A4510010DC520010FFFFFF0FB4
:100FF000B0510010685000102453001084500010AD
:10100000EC510010F052001010B50A4B5B68002B39
:1010100004D00A210848FFF7B9FC10BD054C230095
:10102000064A1021206800F085FB03212000FFF70D
:10103000B5FCEEE73C0300200C1500200D0A001063
:1010400010B5064B5B68002B01D0044810BD044B63
:10105000044A5C21044800F093FDC0463C03002094
:1010600010520010C4520010FC4F0010F0B5DE46C4
:1010700057464E464546E0B58BB0804616001F00E9
:10108000149B9A46159B994616AB1B789B461F23CB
:1010900002AA9446634400221A7032E0002809D064
:1010A00042461268127B904204D8421E4146C968EB
:1010B0008A5C48E0434B444A4021444800F060FDCC
:1010C0000798002B75D05B46002B72D04946D0475D
:1010D00004000D0003000B4300D171E0002946DB42
:1010E00000F082F906000F1E55DB36196F41B94238
:1010F00002D804D1B04202D901267642F717002F58
:101100004FDB43465A68EFF3108472B613685942B6
:101110004B41D9B20791002BF8D1BFF35F8F1F333A
:1011200002AA9446634404930023039302934B461C
:1011300001935346009332003B004046FFF716FDF3
:10114000031EABD1020041464968BFF35F8F002503
:101150000D6084F31088002B29D01F2302A98C4630
:1011600063441B78002BABD112021043A9E7320075
:101170003B00361BAF41BB4202D804D1B24202D978
:1011800001267642F717002FBBDA114B114A3F2197
:10119000114800F0F5FC0E4B0E4A3F210E4800F0BE
:1011A000EFFC0B4B0B4A3F210B4800F0E9FC012000
:1011B00040420BB0F0BCBB46B246A946A046F0BDCB
:1011C0000798F6E734500010DC520010FC4F001076
:1011D000285100108452001044510010F0B587B01F
:1011E00006000F00FFF73FF800281FD106246442D5
:1011F000E517A4197D41BD4202D803D1B44201D9FB
:1012000000240025002D14DB0494059500F0ECF873
:1012100002000B1E13DBA41A9D41002D17DC14D015
:101220003000390000F0ECF807B0F0BD234800F0C2
:1012300041FD234B234A3F21234800F0A1FC204BD2
:10124000204A3F21204800F09BFC002CE8D0FFF70B
:10125000F7FE0023029301931C4B0093049A059B15
:10126000FFF704FF002818DADAE7002300E0002384
:10127000002BD5D1164B1A68EFF3108172B61368A4
:10128000002BFCD0BFF35F8F114B1B68BFF35F8F48
:1012900000221A6081F3108820BF0499059A0D4B33
:1012A0005B6A9A42E3D80B48806A884203D29A422A
:1012B000DBD00123DCE70123DAE7C046345200101B
:1012C000285100108452001044510010DD09001014
:1012D0000C15002000400540F8B504000D0000F09A
:1012E00083F802000B1E10DB2000290080185941F2
:1012F0008B4202D804D1824202D901204042C11758
:10130000002908DBFFF76AFFF8BD064B064A3F21BC
:10131000064800F035FC034B034A3F21034800F028
:101320002FFCC04628510010845200104451001078
:1013300010B5FA2292000023002102F031FBFFF7E2
:10134000CBFF10BD70B5EFF305833F201840103878
:10135000EFF3108C72B6194B1B68002BFBD0BFF358
:101360005F8F012319008140154A5163154A127895
:101370001400C440234214D0114B5C6A8300124D08
:101380005B599C4206D38300104C1B598A430D497C
:101390000A7007E00A4A031D9B00995899500023E0
:1013A00000E00023BFF35F8F044A002111608CF33B
:1013B0001088002B00D0984770BDC046280100D08F
:1013C000004005409B150020101500206C0D0020EA
:1013D00010B50100024A0348FFF78EF810BDC04661
:1013E0004853001099150020044B5B6A034A906A29
:1013F0001900536A9942F9D17047C0460040054030
:10140000084B5B6A01E0074B5B6A8B42FBD301E050
:10141000044B5B6A8B4203D1024B9B6A8342F7D336
:101420007047C0460040054070B504000D00EFF362
:10143000108672B61B4B1B68002BFBD0BFF35F8F6F
:10144000002D1CD02000FFF715F9174B83420BD05D
:1014500019002000FFF716F901212000FFF702F91B
:101460000123A340114A1360A400114BE550BFF3C0
:101470005F8F0C4B00221A6086F3108870BDA200AB
:101480000B4B0021D1500122A2400A490B78934313
:101490000B7005492000FFF71FF900212000FFF71E
:1014A000E1F8E4E7280100D045130010386005405A
:1014B0006C0D00209B150020F0B5DE4600B584B011
:1014C0000400150001921E000293FFF78DFF0395A3
:1014D0008E4202D84ED185424CD9EFF3108B72B6B2
:1014E000274B1B68002BFBD0BFF35F8F254A177873
:1014F0000125A540EBB23B431370234B5D63221DD6
:1015000092000199D150A2002049029850501B6AC4
:101510002B4212D11C4B1B6C2B4208D00020BFF376
:101520005F8F174B00221A608BF3108823E0184B53
:10153000184AC121184800F023FBFFF755FF8E42DF
:1015400014D802D1039B834210D80E4B1B78BB42A8
:101550000ED00D4B1D625D631F2004400123A3408C
:101560000E4A1360074B1F701E38D8E70020D6E7DD
:101570000120D4E7012004B080BCBB46F0BDC046CA
:10158000280100D09B1500200040054010150020C8
:101590006C530010D45300109053001080E200E010
:1015A000EFF3108C72B60B4B1B68002BFBD0BFF314
:1015B0005F8F01238340084A136208490A789A43DF
:1015C0000A70BFF35F8F034B00221A608CF3108800
:1015D0007047C046280100D0004005409B15002000
:1015E00010B500291ED0037B99421BD84B005B1815
:1015F000033B0468A4466344002919D0002A1DD087
:10160000914221D0002A25D0047BA24222D804682E
:1016100050008018033820188170197800291FD1D4
:101620001A7010BD104B114A6821114800F0A8FA39
:10163000104B114A6F310E4800F0A2FA0F4B0E4AC0
:1016400070210B4800F09CFA0D4B0B4A71210848A1
:1016500000F096FA044B054A6821054800F090FA1C
:1016600041701A70DDE7C04668500010E054001069
:1016700084500010D0500010CC540010DC500010EA
:10168000E850001070B506000D001400002914D0B9
:10169000002A14D0806873689847002806D022007A
:1016A00029003000FFF79CFF280007E02A002100F6
:1016B0003000FFF795FF200000E0100070BD08002B
:1016C000FCE7000010B50023437301338373037BF1
:1016D000C3730123027B9A4214D9002B0CD0027BE6
:1016E000934209D85A00D218033A01688C466244E2
:1016F0000133DBB25370EDE70B4B0C4A68210C4809
:1017000000F03EFA002A09D0924207D8016853003F
:101710009A18033A8A180023537010BD024B034AEB
:101720006821034800F02CFA68500010E0540010C3
:101730008450001010B5017342608360FFF7C2FF50
:1017400010BD000070B50400081E00D170BD002956
:1017500034D0237B994231D84B005B18033B22687D
:10176000944663445A78002AF0D02DD0237B9A42C5
:101770002AD853009B18033B21688C4663445D784C
:1017800000215970002825D0237B984222D843009D
:101790001B18033B21688C466344002159700100EB
:1017A0002000FFF76FFF060029002000FFF7CAFFA7
:1017B000020031002000FFF765FFC7E7084B094A28
:1017C0006821094800F0DCF9054B064A6821064803
:1017D00000F0D6F9024B034A6821034800F0D0F923
:1017E00068500010E05400108450001070B50500DF
:1017F0000C001600002928D02DD0037B99422AD84E
:101800004B005B18033B0268944663445A78002AF5
:1018100027D19A78002A2AD11978FFF793FF03007D
:10182000002E03D0EA7B002A27D1EC73002B37D19E
:10183000002C49D02B7B9C4246D82B6861000C19A8
:10184000033C1C190023637070BD224B224A3821CF
:10185000224800F095F9224B224A6821224800F0E4
:101860008FF9224B1C4A3A211C4800F089F9204B81
:10187000194A3B21194800F083F9002A0AD0297B34
:101880008A4207D851008A18033A29688C46624474
:101890005470CAE7124B134A6821134800F070F9DC
:1018A000002B0BD02A7B934208D843001B18033B24
:1018B0002A689446634400229A70B9E7084B094AA3
:1018C0006821094800F05CF9054B064A6821064882
:1018D00000F056F9F0530010B8540010F8530010FF
:1018E00068500010E0540010845000103454001070
:1018F0005C54001070B504000A00457B2900FFF716
:1019000075FF6073280070BD70B50400002967D0B2
:10191000437B8B420ED0002911D0037B99420ED815
:101920004B005B18033B0268D0188378002B0CD166
:10193000002056E00121FFF7DDFF012051E0294B97
:10194000294A6821294800F01BF9002B20D0227B6E
:1019500093421DD85A00D318033B2268D218256839
:10196000EB5C8B421AD0002B1BD0227B934218D801
:101970005A00D318033B2268D21853788B4216D0F2
:10198000002BF0D11A4B1B4A67211B4800F0F8F8D6
:10199000144B154A6821154800F0F2F8437813708B
:1019A00007E0104B104A6821104800F0E9F843782E
:1019B000537000238370437001222000FFF716FF4D
:1019C0000200617B814205D02000FFF75BFE60735F
:1019D000012006E0094B074A6D21074800F0D0F8C6
:1019E000002070BD68500010E054001084500010BA
:1019F000604F0010A0540010F853001080540010E5
:101A000010B50400FEF7ACFD01002000FEF7BEFF9C
:101A1000FF232371BFF35F8F10BD10B50400FEF7E5
:101A20009FFD01002000FEF7B1FFFF23237100237B
:101A30006371BFF35F8F10BD70B504000D00062009
:101A400000F052FAC000290001F00CFCC60908D0D1
:101A50000E4B9E4217D87F231840013035004608B0
:101A600000E001256562A6622C34802080010443D9
:101A700000232360062000F037FA8000A9018919AD
:101A800001F0F0FB70BD0026014DEBE7FEFF00000A
:101A9000FFFF0000002909D00A22064B9C46604443
:101AA000434258414000044BC252704780225200CA
:101AB000F3E7C0460080FCBF9015002070B505001C
:101AC0000C00062000F010FA002829D0164B9D4289
:101AD00027D08022D203154B1A60154B1A60154B84
:101AE0009B6811009943FAD100212800FFF7D2FF2B
:101AF00021002800FFF7A0FF2C002C34E96A6022A7
:101B00004A406E21114080225201224311600A4B4B
:101B10002B6380239B01234310221A600323AB64B1
:101B200070BD80221204D6E70080034000E0004030
:101B300000F0004000C000400103000000BEFDE7CF
:101B400003000A4A1268002A08D0084A1068C3181D
:101B5000074A9A4206D3054A13607047034A05496B
:101B60001160F2E701204042F7E7C046EC12002086
:101B7000000004209C15002010B5FFF7DFFF0000D7
:101B800010B582B00C001900002A0CD0084B002AB6
:101B90000BD00192009323000200064802F0CCF81B
:101BA0000120FFF7CBFF044BF1E7034AF1E7C04602
:101BB00088550010985500109455001070B52B4BA7
:101BC0002B4A1A602B4B2C4A1A602C4B9A682A4BD2
:101BD0009343FAD12A4C01E008CC9847294B9C4208
:101BE000FAD300F001F9234B274A1A60234B9B6874
:101BF000DB43DB01FAD1254B40229A675A671A670B
:101C0000DA66234C09E0234B234A83212348FFF75C
:101C1000B7FF2000FFF7F4FE0834214B9C4209D2A5
:101C20002368002BF5D0012BEDD12000FFF7F5FE46
:101C30000834F2E71B4CA1681B4DC022280001F0BC
:101C400037FFA560FEF70FFB002800D000BEFEF7AF
:101C500077FCFEF78DFEFFF7D7F9144C01E008CCB6
:101C60009847134B9C42FAD370BDC04600E0004039
:101C7000BFCDFBFE00F00040FE7F3C0000C00040F6
:101C8000000C0020100C0020FFFFFF0100F00140BD
:101C9000F80B0020C855001040560010E855001001
:101CA000000C002000ED00E000000020100C0020DF
:101CB000180C00200FB400B583B0084802F00AF8F1
:101CC000049B002B07D005A90191180002F012F81F
:101CD000034801F0FFFF0120FFF730FF2C560010F2
:101CE0003C560010F8B5DE4657464E464546E0B530
:101CF00005000F0092460A9A93424ED31A0E91465F
:101D00001E020A9A00233000494601F0EDFA80468F
:101D10006C006419A4002F4B9C46644463688342A2
:101D200000D260602B1FDBB29B46012B3BD9C02346
:101D30009B012343802212011A60AB00264A995866
:101D4000002905D0506901F08DFA01300138FDD12C
:101D500053465A0123685A40E0231A4080235B010E
:101D600023431A605A46012A28D980239B01234322
:101D7000802212011A60434663604246002330000D
:101D8000494601F0B1FAAD00134B58510120F0BCA7
:101D9000BB46B246A946A046F8BD104B104A2D21BD
:101DA0001048FFF7EDFE012FC1D1C0239B01234353
:101DB00003221A60A368DB07FCD5C9E721687940D4
:101DC00003220A401A60A2680123BB401342FAD0E2
:101DD000CBE7C046008000407C0E0020505600102B
:101DE000A85600106456001030B583B00C2000F0E7
:101DF00021F9FEF79BFB00280DD0002304E0990099
:101E00002D4A2E4888500133092BF8D92A4B2C4AE9
:101E10005A6203B030BD2B4B00229A6700F012F9D2
:101E2000294B01221A60274B5B6C012BFBD1274BFE
:101E300003221A60234B9B6B012BFBD101330093D0
:101E40000433234A0121234800F054F8052300936A
:101E5000214A0121214800F04DF8214B0093002236
:101E600002210420FFF73EFF1E4D00952B000022AB
:101E700001210520FFF736FF104C009423000022BB
:101E800000210720FFF72EFF0094230000220021ED
:101E90000820FFF727FF0A4B0093230000220021B0
:101EA0000920FFF71FFF00952B00002200210620CC
:101EB000FFF718FFADE7C0467C0E0020006CDC0287
:101EC0001BB70000008000403CB0004030B0004034
:101ED000002F685900800240008C864700C00240F5
:101EE000001BB700405973078000014BC058704772
:101EF0007C0E0020F0B5C64600B504000F009046E9
:101F00001D000C2001F0AEF906003D4A42443D4B55
:101F10009A4243D843011B1A9901C91AC9000918EA
:101F20008901404601F09EF90200103A98235B00B7
:101F30009A4239D86B1E062B3CD8069B013B062BD8
:101F400038D8069B9D423BD343461A09B2423DD343
:101F50002D04069B1E0335432368002B3CDB2A4BD4
:101F60009C424AD080225201284B1A60284B1A60AA
:101F7000284B9B6811009943FAD12760A060231D6C
:101F8000C02292011A43212313602368002BFCDA3C
:101F9000E5600823136080BCB846F0BD1E4B1F4AA5
:101FA00011211F48FFF7ECFD1E4B1C4A19211C484C
:101FB000FFF7E6FD1C4B194A1C211948FFF7E0FD0D
:101FC0001A4B164A22211648FFF7DAFD184B134A1E
:101FD00025211348FFF7D4FD22683F231340BB425D
:101FE000BDD1A3681B051B0D8342B8D1E368EE2267
:101FF000D2021340AB42B2D1CDE780229201B3E7C7
:1020000080E84BD380F8A93200C0024000E00040D5
:1020100000F0004000C00040B8560010F457001017
:10202000185700105857001074570010C057001070
:10203000D857001080239B000343014AD3627047A6
:1020400000800540064BAA2212011A602F22DA6096
:10205000044B054A1A60024B5B68002BFBDA7047A1
:10206000004002400060024000B0FA00704710B526
:10207000002802D00B684968984710BD0100002075
:1020800007E083001B185B00501C08601078C01824
:1020900030380A681378303BDBB2092BF1D970472E
:1020A000F0B5DE4657464E464546E0B583B093460A
:1020B0001F000C9B9A460D9C0E9B99460F9B9B07FD
:1020C00003D0B8460F00060022E00192A3468846DE
:1020D0004E46B9460700B44207D2551C4B4641460E
:1020E0002020B84701342A00F5E73D004F465C4602
:1020F000019B9B46B1464646B84637002E0007E096
:10210000013C551C5346185D43463900B0472A0030
:10211000002CF5D135003E0047460F9B9B0707D4A6
:10212000100003B0F0BCBB46B246A946A046F0BDC5
:10213000B0464E46B9462F005D46531BB342EFD220
:10214000541C4B4641462020B8472200F5E7F0B525
:10215000CE46474680B585B0944698460C9D0D9C6A
:102160000EAB1B789946109A119B129EB7071CD490
:10217000002B0CD0F7070AD54F46002F02D10C37A1
:10218000374204D0013B02E030272F5501349442FE
:1021900001D21F2CF8D9F70707D59C4205D21F2C76
:1021A00003D830272F550134F5E7F70615D5770505
:1021B00005D4002C03D0944224D09C4222D00F9A04
:1021C000102A2BD00F9A102A30D00F9A022A35D01D
:1021D0001F2C02D830222A5501341F2C05D84A461C
:1021E000002A31D02D222A550134039602930194FE
:1021F000009543466246FFF753FF05B0C0BCB946A1
:10220000B046F0BD621E012C06D00F9F102F01D0EA
:102210001400D4E7023CD2E71400D0E7B206D1D4D0
:102220001F2CCFD878222A550134D1E7B206CCD55D
:102230001F2CCAD858222A550134C9E71F2CC7D8E9
:1022400060322A550134C3E7720703D52B222A5581
:102250000134CAE73207C8D520222A550134C4E721
:10226000F0B5DE4657464E464546E0B593B081464A
:102270008A46089209931CAB10CB1B789B461E9D87
:10228000219B9846002C03D1102342469A43904646
:102290008023DB0046461E4042461A4212D0002CE4
:1022A00022D000260EE03033D9B2771C0AAB995504
:1022B0002900200000F0D6FFAC4216D31F2F14D8FF
:1022C0003E0004002900200000F0CCFFCBB2092B17
:1022D000E9D94246920605D54121C918C9B20A3941
:1022E000C9B2E2E76121F8E7270043460693209B45
:1022F00005931F9B049303955B46029301970AABDA
:102300000093099B089A51464846FFF720FF13B0F7
:10231000F0BCBB46B246A946A046F0BDF0B5DE46CD
:1023200057464E464546E0B595B0089009910A9249
:102330000B931E9E1F9C20AB1B789B46229B9946AD
:10234000239D269B9A463300234303D110335246E4
:102350009A4392468023DB0057461F4052461A425A
:1023600019D0330023432DD0002714E03033DAB2E4
:102370007B1C98460CABDA554A462B0030002100F6
:1023800000F0B2FFA5421FD819D043461F2B1BD81F
:10239000474606000C004A462B003000210000F0A2
:1023A000A3FFD3B2092BE1D95246920605D54122AB
:1023B000D218D2B20A3AD2B2DAE76122F8E7B145CE
:1023C000E3D901E00023984653460693259B0593E5
:1023D000249B04934B4603935B460293434601932D
:1023E0000CAB00930B9B0A9A09990898FFF7AFFE74
:1023F00015B0F0BCBB46B246A946A046F0BD0000F1
:10240000F0B5DE4657464E464546E0B591B08346A8
:102410008A460C9298461A9C08941B9D09952200A6
:102420002B002000290001F0DEF9002800D0E5E0B3
:1024300001225242D74B2000290001F0CFF9002899
:1024400000D0DBE001225242D34B2000290001F0F2
:10245000AFF9002800D0D1E000220023089E300010
:10246000099D290001F0A4F9002800D0DDE00898BA
:102470000999069007918023DB001E9A1A400D925D
:102480001E9A1A4201D106231C930698079904004C
:102490000D000A000600024300D1D1E0080D4005FE
:1024A000400DBE4CA44660440A03120BBC4B1343C0
:1024B0001F0001F0ABF9BB4ABB4B01F03AF9BB4A34
:1024C000BB4B01F017F904000D000022B94B30009E
:1024D000390001F00AF9B84AB84B01F02AF90200B4
:1024E0000B002000290001F005F901F0A7F9814651
:1024F00001F08CF904000D00B14AB24B01F019F95A
:102500000022B14B01F0F6F801F098F90600AF4A4D
:10251000AF4B2000290001F00CF904000D00300041
:1025200001F074F9AB4AAC4B01F003F902000B0067
:102530002000290001F0D9F804000D0002000B0072
:1025400001F0F7F80A900B91A44BF31800261F0531
:1025500022002B002000290001F0CCF80E900F91F2
:1025600022002B0000208021C90501F0BEF80400E4
:102570000D0000229A4B0A980B9901F0C0F8002236
:10258000984B01F0B7F802000B000A980B9901F084
:10259000B6F80022944B01F0ADF802000B000A9847
:1025A0000B9901F0ACF802000B002000290001F0AB
:1025B000A1F802000B000E980F9901F0A0F800227C
:1025C000774B01F097F832003B0001F0B2F80600BB
:1025D0000F0004000D00069A079B01F0FFF8002889
:1025E00030D001235B429C46E14400227D4B300009
:1025F000390001F084F804000D0023E01E9B0493D1
:102600001D9B03931C9B0293089A099B00920193C4
:1026100043460C9A5146584600F0FCF811B0F0BC05
:10262000BB46B246A946A046F0BD0023002406934F
:102630000794069680231B069C46654407951AE777
:10264000002399464B466333C62B1ED804261E9B97
:102650001B0526D52B0023430FD0644A644B0698F4
:10266000079901F0B3F8002879D00022614B069851
:10267000079901F09DF8002871D01C9B4B4506DDA1
:102680004A46981A431E1C9303E00526DFE7002301
:102690001C938023DB001E9A1A431E9200260023FF
:1026A00099461D9B9E4264D29F1B02231E9A1A408C
:1026B0000A921E9A134202D0002E00D000274B46E9
:1026C000002B07D022002B000698079901F017F87D
:1026D00006900791002200230898099901F068F8F4
:1026E000002848D1444B1E9A1340049303971C9B27
:1026F0000293069B079C0093019443460C9A514613
:10270000584600F087F8002E00D187E71E9B9B06F5
:102710003DD54525441C4346020051462800D84774
:102720004B46DA179B18534005220592013E04964A
:10273000002203920A3202924A46D00F019000937F
:102740004346220051465846FFF78AFD0A9B002B5C
:1027500000D163E702005F460C9E1D9D54E01C9B68
:10276000002B9ED00D9B002B9BD01C9B013B1C93F0
:1027700097E7002799E7069C079D22002900802003
:102780000006844661440B0006920793AAE765257C
:10279000C0E7C046FFFFEF7FFFFFEFFF01FCFFFF39
:1027A0000000F03FFB799F501344D33FB3C8608BC8
:1027B000288AC63F0000F83F61436F63A787D23F76
:1027C00071A379094F930A400000E03F1655B5BB4D
:1027D000B16B0240EF39FAFE422EE63FFF030000E4
:1027E00000002C4000002440000018402D431CEB4A
:1027F000E2361A3F80842E41FFF7FFFF541C434608
:1028000051462020B8472200931BAB42F6D310005C
:1028100004E7C046F0B5DE4657464E464546E0B5AD
:1028200095B00690079193469946209F1E9A1F9B4C
:102830001000190000F0D7FF002831D101225242C8
:10284000BF4B1E981F9900F0B3FF002837D101221B
:102850005242BC4B1E981F9900F0C0FF00283DD18A
:102860000022B94B1E981F9900F0B8FF002850D1E4
:102870000022B64B1E981F9900F09AFF002848D1FD
:10288000002200231E981F9900F092FF002850D1CB
:1028900000239846229B5B0500D4B6E0002458E054
:1028A000229B0393219B029303230193A84B009344
:1028B0004B465A4607990698FFF7F2FB0EE1229B1A
:1028C0000393219B029304230193A24B00934B4655
:1028D0005A4607990698FFF7E3FBFFE00423229A84
:1028E0001A4022990B4210D09B4B002A0FD0042291
:1028F0002299039121990291019200934B465A46E5
:1029000007990698FFF7CCFBE8E0944BEDE703222C
:10291000EEE7229B0493219B039302971E9B1F9C2F
:10292000009301944B465A4607990698FFF768FDB5
:10293000D4E01E9A1F9B0020002100F0D6FE1E90BE
:102940001F9101239846A5E70CAB30221A55013F91
:1029500001341F2C01D8092FF6D81E981F9900F0BA
:102960006DFF050000F052FF02000B001E981F993A
:1029700000F0BBFEFA007A4B9B181A685B680A925B
:102980000B9300F0D6FE0890099100F07BFF060043
:1029900000F038FF02000B000898099900F0A5FE2E
:1029A0000890099100226F4B00F018FF00282ED0EC
:1029B0000136300000F026FF02000B000A980B9948
:1029C00000F0FCFE002801D001350026002F2CD19C
:1029D000280000F01BFF02000B001E981F9900F05A
:1029E00084FE06000F0000225E4B00F0E1FE00288E
:1029F00046D100225B4B3000390000F0EFFE00288A
:102A00003ED1EB073CD501353AE0062746E70022E8
:102A1000544B0898099900F0CBFE0028D6D1002E1F
:102A200001D0F307D2D50136D0E7AA461F2C11D822
:102A3000013F0A21300000F015FC651C30310CAB61
:102A400019550A21300000F00DFC092E0ED90600A0
:102A50002C00EBE755461F2C0CD87B1E002F09D00D
:102A60000CAA302111551F000134F4E72B00554604
:102A70001C00F0E71F2C03D80CAB2E221A55013492
:102A80001F2C10D80A21280000F0C4FB661C30312E
:102A90000CAB19550A21280000F0BCFB051E01D023
:102AA0003400EDE734000323229A1340012B1CD09D
:102AB0001F2C06D84346002B32D00CAB2D221A55C2
:102AC0000134229B0393219B029301940CAB00934E
:102AD0004B465A4607990698FFF7E2FA15B0F0BC44
:102AE000BB46B246A946A046F0BD219B002B13D0A1
:102AF0004346002B02D10C3313420FD0219B013BE4
:102B00002193190003E00CAB30221A5501348C429A
:102B1000CED21F2CF7D9CBE72199F8E72199F6E718
:102B2000229B5B0704D50CAB2B221A550134C8E756
:102B3000229B1B07C5D50CAB20221A550134C0E7D8
:102B4000FFFFEFFFFFFFEF7F65CDCD4165CDCDC12D
:102B50000C580010105800100458001000580010B5
:102B6000F85900100000E03FF0B5DE4657464E46EB
:102B70004546E0B593B082468B46904611930029B6
:102B800000D1EBE200275546119B1878002800D1B0
:102B9000E7E2252809D07C1C43463A005946A8475D
:102BA000119B013311932700EEE7013311930024A9
:102BB000119A11780B00203BD8B2102803D883005B
:102BC000D048C3589F460B00303BDBB2092B2CD9B1
:102BD0002A292FD000230A93119B1A782E2A39D044
:102BE00000239A46119A1378683BD9B2122976D8F5
:102BF0008B00C549CB589F4601231C4301321192DB
:102C0000D6E702231C4301321192D1E704231C436F
:102C100001321192CCE708231C4301321192C7E71D
:102C200010231C4301321192C2E711A8FFF726FAC4
:102C30000A90D1E71C9B1A1D1C921868002804DB1F
:102C40000A90119B01331193C6E702231C434342B0
:102C50000A93F6E78022D20014435A1C11925A7844
:102C60001300303BDBB2092B04D92A2A07D00023FA
:102C70009A46B7E711A8FFF701FA8246B2E71C9B14
:102C80001A1D1C921868002804DB8246119B013330
:102C90001193A7E70020F8E780235B002343511C32
:102CA000119152786C2A01D01C0018E0C0239B00BF
:102CB0001C430131119112E080232343511C1191D7
:102CC0005278682A01D01C0009E0C0231C4301315E
:102CD000119104E080235B001C4301321192119B8F
:102CE00018780300253BDAB2532A00D92CE293006E
:102CF000864AD3589F4680239B001C430132119281
:102D0000EDE780235B001C4301321192E7E778284E
:102D100009D0582838D06F2838D0622838D01023EE
:102D20009C430A2600E01026582833D0692803D097
:102D3000642801D00C229443630501D501229443F9
:102D400069282AD0642828D0A30500D59FE0E30590
:102D500000D5B8E0630600D4CAE01C9A111D1C918E
:102D60001168FF220A4005940A9B0493534603937B
:102D7000029600230193009243463A0059462800E8
:102D8000FFF76EFA070027E01026CDE70826CBE70D
:102D90000226C9E720221443C8E7A30520D4E3058F
:102DA00050D4630666D51C9A111D1C911168FF2230
:102DB0000A40D317D118594005940A9B04935346EF
:102DC00003930296D20F0192009143463A0059466E
:102DD0002800FFF745FA0700119B01331193D3E652
:102DE0001C9BDA1D07218A43110008311C911168D0
:102DF00053689C46DB170C930D930C9A0D9B1000A7
:102E000048400E90624653400F930E980F990C9ACB
:102E10000D9B801A99410E900F9108940A9B07937D
:102E2000534606930496002305936346DA0F0292F5
:102E30000090019143463A0059462800FFF76EFA88
:102E40000700C9E71C9A111D1C911268D317D118ED
:102E5000594005940A9B0493534603930296D20F5C
:102E60000192009143463A0059462800FFF7F8F9CD
:102E70000700B1E7230605D51C9A111D1C910023FC
:102E8000D25E96E71C9A111D1C91126891E71C9B5B
:102E9000DA1D07218A43110008311C9108940A9B0E
:102EA00007935346069304960023059302931368F1
:102EB00054680093019443463A0059462800FFF7AE
:102EC0002DFA070088E71C9A111D1C9105940A9B96
:102ED00004935346039302960023019313680093CF
:102EE00043463A0059462800FFF7BAF9070073E74E
:102EF00023060DD51C9A111D1C9112681204120C88
:102F000031E7C046185800105C580010A85800104F
:102F10001C9A111D1C91126825E746281AD01C9B8B
:102F20000733072293431A0008321C9204940A9A2A
:102F30000392524602925C681B68009301944346D8
:102F40003A0059462800FFF765FC0700119B013342
:102F5000119319E620231C43E1E7672801D0472895
:102F600002D180231B011C43452801D0472801D1F1
:102F700020231C431C9B0733072293431A0008326B
:102F80001C9204940A9A0392524602925C681B684F
:102F90000093019443463A0059462800FFF730FA5F
:102FA0000700119B01331193EEE502231A00224022
:102FB000924623421FD001241C9B1A1D1C927A1C8E
:102FC0009146187843463A005946A8475346002B85
:102FD00016D1119B013311934F46D5E5561C43463C
:102FE00059462020B847230032005C1C9D42F5D88A
:102FF0003D001700E0E701233A002F000A9DF4E7A7
:103000004A46A9460A9D06E0571C434659462020D9
:10301000C84734003A00661CA542F5D84D46914693
:10302000D7E71C9B1A1D1C921B6899465346002B20
:1030300000D1013B4E4601E0013613003278002AF0
:1030400002D05A1E002BF7D14B46F21A1092802361
:10305000DB0026001E401C4203D0524501D95346D6
:10306000109302231A0022400B92234205D03A000B
:1030700037004C46A946554620E03A00109B5F4673
:10308000B3462E0006E0551C434639002020B047C9
:1030900023002A005C1C0A999942F4D835005E4648
:1030A000BB46109437004C46A946554606E01D0025
:1030B0000134561C43465946C84732002078002840
:1030C00004D0002FF4D06B1E002DF0D117004D4618
:1030D0000B9B002B03D1119B0133119354E50A9FE5
:1030E000109B06E0561C434659462020A847230063
:1030F00032005C1C9F42F5D81700ECE721231C43EB
:103100001C9B1A1D1C921B680093059408230493B2
:1031100053460393102302930023019343463A003E
:1031200059462800FFF79CF80700119B01331193C3
:103130002AE57C1C43463A0059462520A847119BA6
:103140000133119327001FE57C1C43463A00594682
:10315000A847119B01331193270015E50A4B9A46A6
:1031600010E5AA46474502D343465A1E00E03A00FE
:10317000434659460020D047380013B0F0BCBB4648
:10318000B246A946A046F0BD6D20001000B585B03E
:10319000029003910121009313004A4202A90248C0
:1031A000FFF7E2FC05B000BD6F20001001480421CC
:1031B000014B184770030020DD31001010B50100ED
:1031C00018231B8814221088984710BD10B50100E1
:1031D00018231B8816221088984710BDF0B5C646E4
:1031E00000B507000E0000250123984600E00135D8
:1031F000B5420AD2AC003C192068FFF7DFFF20601F
:103200000028F4D100239846F1E7404680BCB84638
:10321000F0BD0000124A936F9B0815D29066D166EC
:10322000002905D0FFE7FFE7FFE7516F106F7047F8
:1032300004B580210906C2175140002800D0C843B8
:1032400001F05AFD002104BDF0B5146E556E576FA4
:10325000166FFFF7E3FF1466556657671667F0BDF4
:10326000000000D0114A936F9B0813D2106651667C
:10327000002905D0FFE7FFE7FFE7516F106F7047A8
:1032800004B5002801D00020C04301F035FD002125
:1032900004BDC046F0B5146E556E576F166FFFF73C
:1032A000E5FF1466556657671667F0BD000000D04D
:1032B00094464E4A926F9208624601D230E0C04670
:1032C000F0B54A4EB56F6D08FCD3346E756E776FEE
:1032D000366F00F025F89446444A146655665767E1
:1032E00016676246F0BDC0469446404A926F920807
:1032F000624601D258E0C046F0B53C4EB56F6D084D
:10330000FCD3346E756E776F366F00F04DF89446CF
:10331000364A14665566576716676246F0BDC04662
:10332000002B24DB11D000293EDA00B5C94340420E
:1033300000D1013100F038F8C943404200D10131D9
:10334000DB43524200D1013300BD002AEBD10028FB
:1033500001D1002905D00020C90FC90701D1C04300
:10336000410800B501F0C0FC0022002300BD00B5FB
:1033700000290ADBDB43524200D1013300F014F88C
:10338000C943404200D1013100BDC943404200D190
:103390000131DB43524200D1013300F005F8DB4339
:1033A000524200D1013300BD002923D1002B18D196
:1033B000002A0CD0BC460D4F38667A6600210023E7
:1033C000FFE7FFE7FFE77A6F386F6746704700282F
:1033D00001D00748010000B501F086FC002200235F
:1033E00000BD02000B00002000217047000000D04B
:1033F000FFFFFFFF002B00D0BFE0130C28D1002AF5
:10340000E7D080B4114F39667A66FFE7FFE730B442
:10341000040C7B6F396F1B0423433B667A66FFE71E
:10342000FFE7FFE7C04684B27B6F3D6F1B04234379
:103430003B667A66FFE7FFE7C04600232C042D0CAD
:103440007A6F386F00196941B0BC7047000000D036
:10345000F0B594460025140E01D112020835140F60
:1034600001D112010435940F01D192000235D40F1D
:1034700001D152000135D40B0134254F7C66254C17
:103480003C660E0C93B2FFE7FFE7FFE73C6F664335
:10349000360C7703BE467343DF0B5B04C01AB94199
:1034A000130C7343DB18C91ACE086643360CB644B6
:1034B00093B273431F0F1B01C01AB941130C73431E
:1034C0001F0B1B05C01AB941860D8F023E43664390
:1034D000360C092D24DB520A7243801A7703460A00
:1034E0006643360C16235B1BDE40DF40BF19644683
:1034F0006643821B7046043506330100D940A8405C
:10350000C01900D30131A24206D20023F0BD000051
:10351000000000D0FFFFFFFF121B0130F3D3F1E7E3
:1035200009277F1BFE406446A2B27243801A00D274
:103530000139220C7243130C1204821A99410B00B8
:103540007046043513370100F940A840801900D3B4
:103550000131002B02D1A2420AD2F0BD013000D3CA
:103560000131121BFAD2013BF8D1A24200D2F0BDC8
:10357000013000D30131121BF7E7F0B51C0C00D06D
:1035800080E00CB400251C0A04D11B02160E334344
:10359000120208351C0B04D11B01160F3343120114
:1035A00004359C0B04D19B00960F334392000235E7
:1035B000DC0B02D192185B4101351C009718644165
:1035C0000134464F7C66464C3C660E0CFFE7FFE735
:1035D000FFE7C0463C6F6643360C7703BE4697B2A2
:1035E0007743C01B00D20139C01B00D201399FB202
:1035F0007743C91BC91B170C77437E04FF0B801B45
:10360000B941CE086643360C0C2D33DBB644120BA1
:103610001F053A431B0B97B27743C01B00D20139F9
:103620009FB27743C91B170C77433E043F0C801BA6
:10363000B941860D8F023E43664329277F1BFE401A
:103640000C3D7746AF40BF1930BCA2B2ABB272435B
:103650007343801A9941220C7243130C1204801A8E
:10366000994102000B000137001BA941F9D2781ED5
:103670000021F0BD0C277F1BFE4077467F0BAF403B
:10368000FF19E0E700245D1C07D0144F7D66396602
:10369000FFE7FFE7FFE7FFE73C6F95B29EB26543A8
:1036A0006643401BB141150C1E0C6543664336044E
:1036B0002F0C3E432D04401BB141994204D202001D
:1036C0000B0020000021F0BD01D19042F7D3801AF9
:1036D000994101349942F2D3F6E70000000000D08E
:1036E000FFFFFFFF48404140484018B4134B5B6860
:1036F000019308BD18B4114B1B68019308BD944693
:103700000F4A926F920805D2624618B40B4BDB68E1
:10371000019308BD0A4AF0B5146E556E576F166FC7
:103720006246FFF7F2FF064A14665566576716674A
:10373000F0BD18B4014B9B68019308BD081300202D
:10374000000000D0FFB550404240504059404B402F
:10375000594000E0FFB5154F4C00640D03D0BC424A
:1037600004D10C0314D80020090D09055C00640D78
:1037700003D0BC4204D11C030AD800221B0D1B0538
:1037800001264B4009D44B4003D58B4200D18242E5
:10379000FFBD9942FCD19042FFBD0B43DB180343B0
:1037A0001343F5D0C9434918FFBD0000FF070000CF
:1037B00000B5FFF7CFFF804100BDC04600B5FFF761
:1037C000C9FF01D9002000BD012000BD00B5FFF7F1
:1037D000B9FF01D9002000BD012000BD00B5FFF7F1
:1037E000B1FF804100BD012040054A00121804D8F5
:1037F0005A00121801D8002070470120704700209D
:10380000704700000021002805D17047C1174840CB
:10381000401AFAD0C90713B5064B1B6898470CBC71
:10382000441CA2401005120B0349091B090519434A
:10383000114310BD081400201F04000010B54C00F7
:10384000620D8023D218DB00D21A5B057E2A10DDC0
:103850009E3A13DACC170903490819435242D14062
:10386000640001341532202A05DAD0400843604351
:1038700010BD002010BD0846604310BDC80FC01821
:10388000013810BD18B4024B5B6A019308BD0000FB
:103890000813002010B50148FEF70CFA485A001032
:1038A00070B513231C78012C14D0012C14DC022CCD
:1038B00002DC1F4A1F4B9A641F48FFF77FFC1F4B17
:1038C000186070BD99001E481A4A885001331F2B9A
:1038D000F8D9EAE70023FAE71A48FFF777FC050072
:1038E0001948FFF773FC023803789B007F2B19DD22
:1038F000802229000F4800F0DBF8022CD7D1134BAF
:103900001A88B5231B029A4209D1114B1A88114B10
:103910009A4204D1104B1A88104B9A42C7D000200B
:10392000FEF7C8F90E4B0F4A32210F48FEF728F96F
:103930006D390010081300204C33000008140020DB
:1039400095380010534400005346000054380000DE
:10395000D8380000494600009C3800005946000055
:10396000605A00100C5B0010C05A001007B560468A
:10397000002800D100BE01880A0A0230DF2AFAD1ED
:10398000C9B2820804D3028840880004104300E0D2
:103990000068024A5050039007BD00000813002041
:1039A00051434343C9188C46110C83B24B4310B4A6
:1039B000040C614392B280B2504362431C041B0C5E
:1039C000001910BC59411304120CC0185141614434
:1039D0007047000010B50148FEF76CF994550010CF
:1039E00070B513231E781848FFF7F0FB0500012E71
:1039F00011D0012E09DDAB1E1B789B007F2B1DDD36
:103A000080222900114800F053F81148FFF7D6FB37
:103A1000104B186070BD542201000C4800F048F8AB
:103A2000002300E001331F2BE3D89A00074C125902
:103A3000002AF7D19A0008481051F3E7074B084ACB
:103A400042210848FEF79CF8534600000C14002061
:103A50004C33000008140020D5390010205B001002
:103A60009C5B0010545B001010B5040000F0E6FCF5
:103A7000002804D00419034B9C4200D810BD024812
:103A8000FEF718F900000420B05B001010B500F03C
:103A9000DFFC10BD01480421014B184780030020C2
:103AA000DD310010014B1B68184700008003002027
:103AB000014B5B68184700008003002010B503002D
:103AC000080011001B68984710BD0000F8B50700FA
:103AD0000D001600437C002B02D0002400200CE0D7
:103AE00003681100280098472DE03B7C10E002217C
:103AF00015483B689847601C0134B44214DA002C26
:103B0000F3DD2B19013B1B780D3B5A425341DBB2CD
:103B10002A5D0A2AF0D1002BEED1A042E7DA211A61
:103B200028183B689847E2E7B04203DA311A2818B0
:103B30003B689847002E06DDAD19013D2B780D3B03
:103B40005A4253413B74F8BD305C001070B505001B
:103B50000368002B16D00C4B1C6805E0290004C933
:103B60002000FFF7B3FFE468002C09D02368002B86
:103B7000F9D0064B1B68002BF0D0A342F3D1EDE740
:103B800000232B6070BDC046E4120020E812002024
:103B900070B505000C000B68802B05D021684B1C0C
:103BA00023606418257170BD0800FFF7CFFFF5E7AB
:103BB00010B582B0D0231B0600241C5701A907486A
:103BC00001F0A2F8002806D1019B9C4203D00348D3
:103BD00001F0A2F8012002B010BDC046F80B002091
:103BE00010B5024801F078F810BDC046F80B00206F
:103BF000F0B5CE46474680B583B006000D0090462E
:103C00001C00FFF7D5FF81466B1C05D0002C08D0A7
:103C1000194F1A4B1C6807E0300000F0F3FE050056
:103C2000F4E7174FF5E7E468002C17D02368002B62
:103C3000F9D0144B1B68002B01D0A342F3D12A000A
:103C400031002000B8474346002BECD06B46D91D0D
:103C50000A230B7001222000B847E4E74B46002BF3
:103C600007D16B1E9D41E8B203B0C0BCB946B04657
:103C7000F0BDFFF7B5FFF4E7BD3A0010E4120020F5
:103C8000CD3A0010E8120020094A01E00C331A0076
:103C90001368002B08D08342F8D1002907D1C368EC
:103CA00013600023C36002E0002900D01060704759
:103CB000E412002010B5064B1C6801E09847E46848
:103CC000002C03D06368002BF8D1F8E710BDC04684
:103CD000E412002070B5050000F094FE04000023FB
:103CE000012201002800FFF783FFFFF7E3FF200018
:103CF00070BD000070B5A2B004000E00FFF758FFC1
:103D000005008422002101A8FFF7CCFE3300220029
:103D100001A90848FFF73AFA040001A8FFF716FFC7
:103D2000FFF7C8FF002D02D1200022B070BDFFF7C1
:103D300057FFF9E7913B00100FB400B583B004A919
:103D400001C90191FFF7D6FF03B008BC04B01847C2
:103D500010B500F085F810BDF0B583B005000E0079
:103D600000240FE06B46D91D0D230B7000200028A6
:103D700016D193699B06FCD40B7813600130013196
:103D8000F5E70134B44219DA0D4B1A682F5D0D4B7B
:103D9000D31859424B415B000B495B5EBB42E1D0FB
:103DA0006B46D91D0F7000200028EAD193699B064D
:103DB000FCD40B78136001300131F5E703B0F0BD9E
:103DC000941500200080FCBF90150020F0B583B052
:103DD00006000F00002004E06B4607331B782370B9
:103DE0002800B84215DA0E4B1A6893691024210096
:103DF00019401C420DD1451C34186B46D81D0029B2
:103E0000EAD19369DB06FCD41368037001310130F9
:103E1000F5E7002801D003B0F0BD0338FBE7C0464A
:103E20009415002070B515001C000B4B1860FDF7B1
:103E300045FE002D06DA002C09DA01210748FFF7BC
:103E400023FF70BD02212800FCF70EFBF3E70221DF
:103E50002000FCF709FBF0E79415002090030020F8
:103E600010B5064B1B78064B1B78E121012300227D
:103E700049020448FFF7D6FF10BDC046FC6200109F
:103E80000063001000400340002301E0C1540133EF
:103E90008022D2009342F9D3704743780178591AAF
:103EA0000131C2788378D31A01334B4343607047A2
:103EB00000B585B080236A461373507300230093C6
:103EC000023303AA3C21024800F080FA05B000BD8D
:103ED000AC030020F0B583B006000D004F1C380085
:103EE000FFF7C2FD0400012304E0F218013A127842
:103EF000E2540133AB42F8DD4023237000230093EA
:103F00003B0022003C21044800F060FA2000FFF74B
:103F1000BDFD03B0F0BDC046AC03002070B5050088
:103F20000C002120FFF7C4FF2078FFF7C1FF607865
:103F3000FFF7BEFF2220FFF7BBFFA078FFF7B8FF17
:103F4000E078FFF7B5FF61682800FFF7C3FF70BD99
:103F500010B5AE20FFF7ACFF2020FFF7A9FF00202F
:103F6000FFF7A6FF4020FFF7A3FFA820FFF7A0FF61
:103F70003F20FFF79DFFA120FFF79AFFC820FFF722
:103F800097FFD320FFF794FF0020FFF791FFDA207F
:103F9000FFF78EFF1220FFF78BFFD520FFF788FF7A
:103FA0008020FFF785FFD920FFF782FFF120FFF780
:103FB0007FFFDB20FFF77CFF3020FFF779FF8120B8
:103FC000FFF776FFA020FFF773FFA420FFF770FF35
:103FD000A620FFF76DFF8D20FFF76AFF1420FFF783
:103FE00067FF2E20FFF764FFAF20FFF761FF134844
:103FF000FFF753FF002303E0114A0021D15401339E
:104000006F2BF9DD0F4C00212000FFF73DFF0B491E
:104010002000FFF783FF00240CE0A520FFF748FFF6
:10402000C820FDF785F9A420FFF742FFC820FDF75F
:104030007FF90134012CF0DD10BDC046A40300203F
:1040400020150020E40E0020F0B5D646474680B586
:1040500083B0824688460620FDF746FF070002240B
:1040600000E02C00FE2C1CD801970026A51C28027D
:10407000424600230021FFF793FC002903D1B142FF
:10408000EFD1B842EDD980256D00012D0CD96E1EFF
:10409000210071433800FFF7E5F8404504D83500AA
:1040A000F3E780256D00F0E753461C616B1E1B0291
:1040B000524612685340FF221202134080204001F2
:1040C000524610430360290061433800FFF7CAF8E5
:1040D00003B0C0BCBA46B046F0BD000010B5040045
:1040E000144B984222D080229202134B1A60134B39
:1040F0001A60134B9B6810009843FAD12000FFF719
:10410000A3FF226807235340CF221A4080235B017C
:1041100023431A602200243280239B011A43032187
:10412000116004341C430223236010BD802252021C
:10413000DBE7C04600C0034000E0004000F0004064
:1041400000C00040F0B5DE4657464E464546E0B555
:1041500085B0060010001C0002930EAB1A78039283
:104160000F9D109F33680022DA6633685960336808
:104170000132DA66A246002398469B4600242BE0D3
:104180003279002A31D001222FE00399002901D091
:1041900000212EE001212CE03800A8470300044351
:1041A000E4B2002B06D13268526BD20602D4002D45
:1041B000F2D1F6E7002B09D13268802151588B46A5
:1041C00000291FD1002C2FD1C1451ED0002C33D186
:1041D00001229446E0440198D0452DDA029A013A32
:1041E00091464246002ACBD000229202C145CCD053
:1041F000002149020A43411C0191007831680243C1
:104200000A61D4E7526D01240EE0039A002ADDD141
:104210000AE03800A84703000443E4B2002B06D1AB
:104220003268526B920502D4002DF2D1F6E7002BD2
:10423000CCD13268126EC9E7002C09D0002B15D101
:104240005B46002B16D0DB0718D45B461B0709D54D
:10425000039B3371404605B0F0BCBB46B246A9464D
:10426000A046F0BD02235B429846F1E701235B4282
:104270009846EDE702235B429846E9E702235B425A
:104280009846E5E7F0B5D6464F464646C0B5050028
:104290000C000520FDF728FE0600600880192100AB
:1042A000FEF7E0FF07004300994681440521484698
:1042B000FEF7D8FF80463B1A9A46284B9C4224D8EA
:1042C000700080192649FEF7CDFF441C4346023B8F
:1042D000A34221D32B680022DA6629680A680423E6
:1042E000534006221A4080235B010B431A602B685F
:1042F0005246DA612B6842461A624B464F2B11D95F
:1043000050214846FEF7AEFF0DE0700080191549B8
:10431000FEF7A8FF441CD9E7134B144A5F21144849
:10432000FDF72EFC0120A0232A68D0502A68110036
:104330007C31D06F44402404240C80235B010B4368
:104340001C602B680122DA6639003000FEF78AFF14
:10435000E0BCBA46B146A846F0BDC0463F420F0099
:104360008096980040787D01F46000105461001040
:104370001461001010B5114B98421CD01022104B44
:104380001A60104B1A60104B9B6814009C43231E4C
:10439000F9D104710268D46602686624FF3414609F
:1043A0000268D36302689363883303220468E2508F
:1043B000FFF768FF10BD0822E1E7C046AC0300200C
:1043C00000E0004000F0004000C0004030B585B083
:1043D00008AC25780024029401940095FFF7B2FE02
:1043E00005B030BD10B5024800F004F810BDC0465D
:1043F0000013002070B588B0040004AD00260496B8
:104400000922002105A8FFF74DFB00960922002193
:1044100001A8FFF747FB4B232B700D2269462800AC
:1044200000F052FC002304E05A1D69468A5CE25405
:104430000133072BF8DD08B070BD000010B5034B49
:104440000100186800F00EF810BDC046B803002047
:1044500010B5034B0100186800F050FB10BDC046BA
:10446000B8030020F0B54E464546DE465746E0B557
:104470000D000B35060083B0162D22D8102900D967
:10448000B2E000F0A9FA102518230220CC4FFB1847
:104490001A005C68083A944200D1B5E003236268D0
:1044A0009A431300E268A168CA6091600122E31890
:1044B000596830000A435A6000F090FA2000083032
:1044C00095E007239D4300D58EE0A94200D98BE0FB
:1044D00000F082FAFC235B009D4200D2A1E1680A51
:1044E00000D18BE0042800D974E138239846A8094C
:1044F00080443930C100B24F79184C680839A14264
:104500000ED003239C4604E0002ACBDAE468A142E3
:1045100006D06246636893435A1B0F2AF4DD404677
:104520003A003C690832944200D178E00323616884
:10453000994389460B00491B0F2900DD75E17A611B
:104540003A610029B2DA80229200914500D310E14D
:104550005909DA0801238B40D2007968D2190B433C
:1045600091687B60E260A1609460CC600121821060
:104570009140994259D80B4205D1032290434900FA
:1045800004300B42FBD003239846C3009946B9443C
:10459000CC4682466346DC68A44507D126E1002A62
:1045A00000DB2FE1E468A44500D11FE142466368C7
:1045B00093435A1B0F2AF2DD0120804661190543FF
:1045C0006560A068E5680837C560A860404610438C
:1045D000F960B9604860CF6030008F60E25000F051
:1045E000FDF92000083002E00C230020336003B006
:1045F000F0BCBB46B246A946A046F0BD80213F2391
:1046000040209846890076E7DC680230A34200D05B
:1046100044E73A003C690832944200D086E7012121
:104620007B68821091409942A5D90323BC686268D7
:104630009A439146954203D8531B0F2B00DD8AE025
:1046400023004B445F4A01935F4B93469A4612689E
:104650001B68EB18013200D136E15C4A9446634492
:104660001B0B1B0300933000009900F0B9F9030005
:104670008046013300D1F3E0019B834200D9EDE095
:1046800052460098526803009446514663444B607A
:1046900001991A00414500D14BE15B461B6801338B
:1046A00000D150E1434601995B1A9A1853465A606B
:1046B0000723424641461A400192194200D10DE1BA
:1046C00008239846881A424B0099804441449B1A1B
:1046D0005B1A1B051B0D0091300019009B4600F072
:1046E0007FF9431C00D14AE14346C01A03005B44F2
:1046F0000093534652465B6801215B445360424637
:104700004046BA60009A0A434260BC4200D11EE1B2
:104710004A460F2A00D81CE107200C3A8243606801
:104720000140052011436160A118486088600F2A8C
:1047300000D92FE14246444652685146C96A99421F
:1047400001D25146CB625146096B994200D389E0B0
:1047500051460B6386E0012229001343114365197A
:1047600061603000BD606B6000F038F920000830F7
:104770003DE75A0A042A6BD9142A00D9BEE0110079
:104780005C325B31D20008235B429C46BA189444E9
:1047900063469A6803239846944500D197E04346C0
:1047A00051689943494502D992689445F7D1D36835
:1047B0009C467B686146A260E1608C60D460D5E66F
:1047C000F0070020E8070020340D00200F10000043
:1047D00008100000142852D9542800D996E06E23FE
:1047E0009846280B80446F30C10084E608239B461E
:1047F000073BDC449B46DA4443465246134200D012
:10480000C8E64CE00122E318596830000A435A60B8
:10481000E368A268D3609A6000F0E0F820000830F6
:10482000E5E62B00E808083330E6012360191D4354
:10483000656078613861C26082601A004B460A4345
:1048400042603000E15000F0C9F820000830CEE6A8
:104850009A09110039323831D20094E7BC4260D055
:10486000BC68626803239A43531B954202D80F2BFE
:1048700000DD70E7300000F0B1F80020B7E65B2300
:10488000984680445C30C10035E608235B429C4674
:10489000E1444B469B6801384B4500D097E04346C6
:1048A0000342F2D17B688B437B604900994200D977
:1048B000BBE6002904D1B8E6042294464900E2444C
:1048C0000B42F9D0504660E610330093CBE68910D6
:1048D000023B8B4079680B437B606BE7009B3000A9
:1048E00043445B421B051B0D19009B4600F078F802
:1048F000431C00D0F8E600239B46FAE6542A2AD847
:104900001A0B11006F326E31D2003CE7AA235B0014
:1049100098422AD8DD3B9846E80B80447830C100A5
:10492000E9E553465B68009A9C46534662445A60E8
:10493000B3E6090500D0B0E60200BC684A44013184
:104940000A436260F9E65B4642461A60B0E64446B6
:10495000F3E641608EE7AA2149008A4224D8DA0BA7
:10496000110078327731D2000DE71A4B984224D8E3
:104970007C239846A80C80447D30C100BBE5009A9A
:10498000019B94464246083B63449B1A00930023D4
:104990009B46AEE621003000083100F0AFF85346E8
:1049A000BC685B686268C8E60A498A420BD89A0C00
:1049B00011007D327C31D200E5E6FE217E237F208E
:1049C0009846890097E5FE227E219200DBE67B680F
:1049D0006BE7C046540500007047C0467047C046AC
:1049E000002370B5064D040008002B60FDF7A8F801
:1049F000431C00D070BD2B68002BFBD02360F9E76F
:104A0000680D002010B583070AD00300032102E0DF
:104A100001330B4205D01A78002AF9D1181A10BDBB
:104A2000030019680C4A0D4C8A188A4322420FD1A0
:104A30005968094A04338A188A43224208D15968BE
:104A4000054A04338A188A432242F1D000E0013338
:104A50001A78002AFBD1E1E7FFFEFEFE808080800D
:104A6000F8B50C000500FFF7B7FF204FBB685E6884
:104A700003239E431E4B341B9C466444240B013C81
:104A8000113324039C4207DB00212800FFF7A8FF15
:104A9000BB689B19984204D02800FFF79FFF0020B5
:104AA000F8BD28006142FFF79BFF431C0DD0012297
:104AB000BB68361B16435E600E4B28001A68141B39
:104AC0001C60FFF78BFF0120EAE700212800FFF7B9
:104AD00087FFBA68831A0F2BDEDD07490968401A81
:104AE0000449086001210B435360D5E7F00700201B
:104AF000EF0F0000380D0020E8070020F0B5C64693
:104B000005000C0000B500294FD0FFF765FF21001C
:104B100008394C68012622000320B2438F187B68B5
:104B20008343624898468368BB426AD043467B60B1
:104B300026421ED108239C460C688444091B121986
:104B40008C6864454FD0CB68E3609C604346FC189A
:104B50006468344211D1BB68554C4244A34200D131
:104B60007EE0FC68DC60A360012313434B608A5045
:104B700006E0FC1864683442EDD016434E603A609B
:104B800080239B009A4213D25409D3080122A240E9
:104B90004468DB002243426018188368C8608B6059
:104BA0008160D9602800FFF719FF80BCB846F0BDCE
:104BB000530A042B3ED89409260039343836E400D1
:104BC00004192368083C03279C4242D05868B84324
:104BD000904202D99B689C42F8D1DC68CC608B6023
:104BE000A160D960DEE74346F8184068304257D1EB
:104BF000FB68B86842441643C36098604E608A50B0
:104C0000D0E713004344264206D10A68891A8C680B
:104C10009B18CA68E260946001221A434A60254AE0
:104C2000816012689A42BDD8234B28001968FFF7AB
:104C300017FFB7E7142B07D9542B1AD8140B2600EB
:104C40006F346E36E400BBE71E005C335B36DC007D
:104C5000B6E70122B610B240466832434260BDE773
:104C6000D9609960CB608B60012313434B608A50FD
:104C700098E7AA246400A34205D8D40B2600783410
:104C80007736E4009CE70D4CA34205D8940C26002F
:104C90007D347C36E40093E7FE247E26A4008FE773
:104CA000330013434B603A607CE7C046F0070020B6
:104CB000F8070020EC070020340D00205405000008
:104CC000F8B5C0460000000001B40248844601BCAB
:104CD000604700BF0502002001B40248844601BCC1
:104CE000604700BF5101002001B40248844601BC66
:104CF000604700BFDD02002001B40248844601BCC9
:104D0000604700BFDD02002001B40248844601BCB8
:104D1000604700BF0901002001B40248844601BC7D
:084D2000604700BFC100002044
:104D28004D754B4F4220736179732068656C6C6FC9
:104D3800210000004D6963726F2076657273696F98
:104D48006E206F66204D6F7273654B4F42000000F6
:104D5800080052501A520A0006005250197CA0B698
:104D68003C4D001064656C7461203E3D202D32304E
:104D780034382026262064656C7461203C3D20323E
:104D880030343620262620212864656C746120265C
:104D9800203129002F686F6D652F65642F636F645C
:104DA800652F7069636F2F7069636F2D73646B2F44
:104DB8007372632F7270325F636F6D6D6F6E2F68E1
:104DC800617264776172655F6972712F6972712EA1
:104DD80063000000212864656C7461203E3E203128
:104DE8003175290063757272656E74203D3D205FD0
:104DF8005F756E68616E646C65645F757365725F1C
:104E0800697271207C7C2063757272656E74203DB6
:104E18003D2068616E646C65720000006972715FA4
:104E280068616E6465725F636861696E5F6672650A
:104E3800655F736C6F745F68656164203E3D203008
:104E480000000000767461626C655F68616E646C76
:104E58006572203D3D205F5F756E68616E646C65AC
:104E6800645F757365725F69727100002128282874
:104E78002875696E747074725F7429767461626CD7
:104E8800655F68616E646C657229202D202828751D
:104E9800696E747074725F74296972715F68616E8B
:104EA800646C65725F636861696E5F736C6F74735D
:104EB80029202D2031292573697A656F6628737436
:104EC80072756374206972715F68616E646C657273
:104ED8005F636861696E5F736C6F742929000000F5
:104EE80030783163203D3D20282A696E7374293E4D
:104EF8003E31317500000000216578636570746982
:104F08006F6E207C7C20657863657074696F6E2095
:104F18003D3D206E756D202B2031360066616C7327
:104F28006500000069735F7368617265645F697228
:104F3800715F7261775F68616E646C657228736C0B
:104F48006F745F68616E646C65722900657863656B
:104F58007074696F6E000000666F756E6400000003
:104F68006972715F6164645F7461696C5F746F5FBB
:104F7800667265655F6C697374000000696E7365BD
:104F880072745F6272616E63685F616E645F6C69A0
:104F98006E6B00006972715F72656D6F76655F6830
:104FA800616E646C657200006D616B655F62726151
:104FB8006E6368007265736F6C76655F6272616EAE
:104FC800636800006972715F7365745F6578636C0C
:104FD80075736976655F68616E646C657200000060
:104FE80072742D3E616C61726D5F6964203D3D2075
:104FF800696400002F686F6D652F65642F636F64A7
:10500800652F7069636F2F7069636F2D73646B2FE1
:105018007372632F636F6D6D6F6E2F7069636F5F4F
:1050280074696D652F74696D652E63006964202647
:1050380026206964203C3D20706F6F6C2D3E6865AA
:1050480061702D3E6D61785F6E6F6465730000005E
:10505800256C6C6420286869202530327829000086
:105068006964202626206964203C3D2068656170BB
:105078002D3E6D61785F6E6F646573002F686F6D8C
:10508800652F65642F636F64652F7069636F2F7078
:1050980069636F2D73646B2F7372632F636F6D6D0C
:1050A8006F6E2F7069636F5F7574696C2F696E63BB
:1050B8006C7564652F7069636F2F7574696C2F70D8
:1050C800686561702E680000706172656E745F6952
:1050D800640000006368696C645F69640000000034
:1050E800706172656E745F696420213D2063686930
:1050F8006C645F69640000002170685F636F6E74A0
:1051080061696E735F6E6F646528706F6F6C2D3E9A
:10511800686561702C2072657573655F6964290024
:1051280075735F73696E63655F626F6F74203C3D72
:1051380020494E5436345F4D415800002F686F6D3A
:10514800652F65642F636F64652F7069636F2F70B7
:1051580069636F2D73646B2F7372632F636F6D6D4B
:105168006F6E2F7069636F5F626173652F696E631D
:105178006C7564652F7069636F2F74797065732E11
:105188006800000072656D6F7665645F6964203D34
:105198003D206E6578745F696400000063616C6C23
:1051A8006261636B00000000706F6F6C2D3E616C74
:1051B80061726D5F696E5F70726F6772657373207D
:1051C8003D3D206D616B655F7075626C69635F69F9
:1051D800642869645F686967682C206E6578745F05
:1051E800696429006964202626202170685F636F3E
:1051F8006E7461696E735F6E6F646528686561704F
:105208002C2069642900000064656661756C745F10
:10521800616C61726D5F706F6F6C5F696E697469E4
:10522800616C697A6564282900000000417474651E
:105238006D7074656420746F20736C656570206987
:105248006E73696465206F6620616E20657863659A
:105258007074696F6E2068616E646C65723B20754E
:10526800736520627573795F776169742069662058
:10527800796F75206D757374000000007570646136
:1052880074655F75735F73696E63655F626F6F7472
:1052980000000000616C61726D5F706F6F6C5F6120
:1052A8006C61726D5F63616C6C6261636B000000BE
:1052B8006765745F656E747279000000616C617275
:1052C8006D5F706F6F6C5F6765745F64656661754D
:1052D8006C7400006765745F656E7472795F6964E9
:1052E8005F6869676800000070685F667265655F7F
:1052F8006E6F64650000000070685F6164645F63DE
:1053080068696C645F6E6F646500000070685F694F
:105318006E736572745F6E6F6465000070685F67B6
:1053280065745F6E6F6465006164645F616C61726F
:105338006D5F756E6465725F6C6F636B0000000073
:10534800486172647761726520616C61726D2025B5
:105358006420616C726561647920636C61696D6554
:105368006400000074696D65725F68772D3E696E30
:1053780074732026203175203C3C20616C61726D6D
:105388005F6E756D000000002F686F6D652F656496
:105398002F636F64652F7069636F2F7069636F2D5A
:1053A80073646B2F7372632F7270325F636F6D6DEE
:1053B8006F6E2F68617264776172655F74696D657D
:1053C800722F74696D65722E6300000068617264E3
:1053D800776172655F616C61726D5F7365745F742C
:1053E8006172676574000000726F6F745F696400B2
:1053F8002F686F6D652F65642F636F64652F706903
:10540800636F2F7069636F2D73646B2F7372632FD3
:10541800636F6D6D6F6E2F7069636F5F7574696C04
:105428002F70686561702E63000000002170685F4E
:105438006765745F6E6F646528686561702C20729B
:105448006F6F745F6964292D3E7369626C696E675A
:10545800000000002170685F6765745F6E6F6465A7
:1054680028686561702C20726F6F745F6964292DDC
:105478003E706172656E74006E65775F7375625F0A
:105488007472656520213D20686561702D3E726FDC
:105498006F745F696400000070685F72656D6F7695
:1054A800655F616E645F667265655F6E6F646500F7
:1054B80070685F72656D6F76655F616E795F68654C
:1054C8006164000070685F6164645F6368696C644C
:1054D8005F6E6F646500000070685F6765745F6E7B
:1054E8006F646500746F74616C0000002F686F6DE5
:1054F800652F65642F636F64652F7069636F2F7004
:1055080069636F2D73646B2F7372632F636F6D6D97
:105518006F6E2F7069636F5F73796E632F6D75742B
:1055280065782E63000000006D74782D3E636F72FD
:10553800652E7370696E5F6C6F636B006C6F636B65
:105548005F69735F6F776E65725F69645F76616CC0
:105558006964286D74782D3E6F776E657229000036
:105568006D74782D3E656E7465725F636F756E74C9
:10557800000000006D757465785F657869740000D7
:105588002C2066756E6374696F6E3A200000000007
:10559800617373657274696F6E20222573222066A9
:1055A80061696C65643A2066696C652022257322FE
:1055B8002C206C696E65202564257325730A00000C
:1055C80031203D3D202875696E747074725F7429AE
:1055D8006C2D3E7370696E5F6C6F636B000000002A
:1055E8002F686F6D652F65642F636F64652F706911
:1055F800636F2F7069636F2D73646B2F7372632FE2
:105608007270325F636F6D6D6F6E2F7069636F5F5D
:1056180072756E74696D652F72756E74696D652E1D
:10562800630000000A2A2A2A2050414E4943202AB2
:105638002A2A0A000A00000072756E74696D655F97
:10564800696E6974000000007372635F6672657149
:10565800203E3D2066726571000000002F686F6D66
:10566800652F65642F636F64652F7069636F2F7092
:1056780069636F2D73646B2F7372632F7270325F5F
:10568800636F6D6D6F6E2F68617264776172655FAD
:10569800636C6F636B732F636C6F636B732E630044
:1056A800636C6F636B5F636F6E66696775726500C5
:1056B80076636F5F66726571203E3D2028504943CE
:1056C8004F5F504C4C5F56434F5F4D494E5F4652BB
:1056D80045515F4D485A202A204D485A29202626F0
:1056E8002076636F5F66726571203C3D20285049C3
:1056F800434F5F504C4C5F56434F5F4D41585F4698
:105708005245515F4D485A202A204D485A290000D9
:105718002F686F6D652F65642F636F64652F7069DF
:10572800636F2F7069636F2D73646B2F7372632FB0
:105738007270325F636F6D6D6F6E2F686172647720
:105748006172655F706C6C2F706C6C2E630000006A
:105758006662646976203E3D203136202626206622
:1057680062646976203C3D203332300028706F73C4
:10577800745F64697631203E3D20312026262070F2
:105788006F73745F64697631203C3D203729202689
:10579800262028706F73745F64697632203E3D203E
:1057A8003120262620706F73745F64697632203C3E
:1057B8003D20372900000000706F73745F646976BC
:1057C80032203C3D20706F73745F6469763100004D
:1057D8007265665F6D687A203C3D202876636F5F4E
:1057E80066726571202F203136290000706C6C5F5D
:1057F800696E697400000000666E6900666E692B48
:10580800000000006E616E00666E692D00000000E9
:10581800162C0010C62B0010C62B0010202C0010D0
:10582800C62B0010C62B0010C62B0010C62B00106C
:10583800C62B0010C62B0010C62B00100C2C001015
:10584800C62B0010022C0010C62B0010C62B00100F
:10585800F82B0010B82C0010DE2C0010F62C0010CD
:10586800DE2C0010982C0010DE2C0010DE2C00100E
:10587800DE2C0010DE2C0010DE2C0010DE2C0010B8
:10588800DE2C0010D42C0010DE2C0010DE2C0010B2
:10589800DE2C0010DE2C0010DE2C0010022D001073
:1058A80032310010483100104831001048310010E2
:1058B80048310010483100104831001048310010BC
:1058C80048310010483100104831001048310010AC
:1058D800483100104831001048310010483100109C
:1058E800483100104831001048310010483100108C
:1058F800483100104831001048310010483100107C
:10590800483100104831001048310010483100106B
:10591800483100104831001048310010483100105B
:105928005A2F00101A2F00105A2F0010483100105B
:10593800483100104831001048310010483100103B
:10594800483100104831001048310010483100102B
:10595800483100104831001048310010483100101B
:105968004831001048310010483100100E2D001049
:1059780048310010483100104831001048310010FB
:1059880048310010483100104831001048310010EB
:10599800483100100E2D0010AA2F00100E2D0010F7
:1059A8005A2F00101A2F00105A2F001048310010DB
:1059B8000E2D0010483100104831001048310010F9
:1059C80048310010483100100E2D0010FC30001036
:1059D80048310010483100102230001048310010C2
:1059E8000E2D001048310010483100100E2D001007
:1059F800000000000000F03F00000000000024400C
:105A080000000000000059400000000000408F40E6
:105A1800000000000088C34000000000006AF84051
:105A28000000000080842E4100000000D012634175
:105A38000000000084D797410000000065CDCD41EB
:105A48006D697373696E6720646F75626C65206633
:105A5800756E6374696F6E002A282875696E7438CC
:105A68005F74202A29282828766F6964202A2972D9
:105A78006F6D5F646174615F6C6F6F6B75702872B6
:105A88006F6D5F7461626C655F636F64652827532F
:105A9800272C202746272929292D322929202A2061
:105AA80034203E3D2053465F5441424C455F5632B8
:105AB8005F53495A450000002F686F6D652F656474
:105AC8002F636F64652F7069636F2F7069636F2D23
