:020000041000EA
:1000000000B5324B212058609868022188439860DF
:10001000D860186158612E4B002199600221596106
:100020000121F02299502B49196001219960352056
:1000300000F044F80222904214D00621196600F024
:1000400034F8196E01211966002018661A6600F04E
:100050002CF8196E196E196E052000F02FF8012189
:100060000842F9D1002199601B49196000215960AB
:100070001A491B48016001219960EB211966A021F2
:10008000196600F012F800219960164914480160C1
:100090000121996001BC002800D000471248134993
:1000A000086003C880F30888084703B5996A0420EC
:1000B0000142FBD001200142F8D103BD02B5186610
:1000C0001866FFF7F2FF186E186E02BD00000240BE
:1000D000000000180000070000035F00212200005C
:1000E000F4000018222000A00001001008ED00E03C
:1000F00000000000000000000000000074B24E7A12
:1001000000200420F7010010C3010010C5010010F9
:10011000C1010010C1010010C1010010C101001097
:10012000C1010010C1010010C1010010C701001081
:10013000C1010010C1010010C9010010CB01001065
:10014000CD010010CD010010CD010010CD01001037
:10015000CD010010CD010010CD010010CD01001027
:10016000CD010010CD010010CD010010CD01001017
:10017000CD010010CD010010CD010010CD01001007
:10018000CD010010CD010010CD010010CD010010F7
:10019000CD010010CD010010CD010010CD010010E7
:1001A000CD010010CD010010CD010010CD010010D7
:1001B000CD010010CD010010CD010010CD010010C7
:1001C00000BE00BE00BE00BE00BE00BE00F04BF888
:1001D000103800BEF2EB887134D3051060D30510DF
:1001E0003402001090A31AE700202149086006C8D5
:1001F00081F3088810471F48006800282FD10DA4FC
:100200000ECC002902D000F012F8F9E71A491B4A77
:10021000002000E001C19142FCD1194988471949E9
:1002200088471949884700BEFDE701C901C29A42C3
:10023000FBD3704760D30510C0000020E01C0020F5
:1002400080EF0510000004200000042080EF05105E
:1002500000100420001004200000000070470B482C
:1002600006F012F90047EFF30580C0B270470000B6
:1002700008ED00E0000000D0E01C00206420012018
:10028000394300105D030010D144001057560000A0
:1002900005005250DE65F46880EF051006005250EC
:1002A0005422A29D0418021006005250861C03021C
:1002B0001018021006005250ABB360532018021001
:1002C000F8B5C0460448054B10B5834203D0044B33
:1002D000002B00D0984710BDE01C0020E01C00203F
:1002E0000000000006480749091A8B10C90FC918F9
:1002F00010B5491003D0044B002B00D0984710BD17
:10030000E01C0020E01C00200000000010B5074C9D
:100310002378002B09D1FFF7D5FF054B002B02D026
:10032000044800E000BF0123237010BDE81D002039
:1003300000000000A8020210054B10B5002B03D0EE
:100340000449054800E000BFFFF7CCFF10BDC046E0
:1003500000000000EC1D0020A8020210B0B588B01B
:1003600004AF00F033F9012000F0E8FA031E04D0D6
:10037000FA235B00180000F00FFA4C4801230293A7
:10038000012301930223009302230422042107F096
:100390007FF80F23FB1800221A700F257B191A789B
:1003A0007B1901321A70FC1C7B191B78180007F0AE
:1003B00074FA03002370BC1C7B191B78180007F02B
:1003C0007BFA03002370FA1CBB1C12781B789A423C
:1003D00069D0012007F048FBFA235B00180002F007
:1003E0000DFF7B191B78180007F057FA03001C005B
:1003F0007B191B78180007F05FFA03001900200032
:1004000007F082FE07F034FDFA239B00180002F08B
:10041000F5FE274B180000F003FA012007F024FB3B
:100420001F230E220021002007F08EFE0E23FB1852
:1004300000221A700023BB602FE000237B601EE0C7
:100440007B68DAB20E23FB181B78D318DAB27B1C58
:1004500040321A707B1C7A1C12781F210A401A70D5
:100460007B1C7A1C127840210A431A707B1C1B7873
:100470000021180008F012F87B6801337B607B686C
:100480001F2BDDDD07F026FD0E217B181A787B1867
:1004900001321A70BB680133BB60BA68F023DB001D
:1004A0009A42CADB79E7C04677E7C046B802021035
:1004B000D80E002080B582B000AF78607B68002243
:1004C0000121180000F092FBC046BD4602B080BD7D
:1004D00080B582B000AF7860D0231B065A687B6875
:1004E000DA401300012213405A1E9341DBB2180078
:1004F000BD4602B080BD80B582B000AF7860D02329
:100500001B067A685A61C046BD4602B080BD80B500
:1005100082B000AF7860D0231B067A689A61C0462B
:10052000BD4602B080BD80B584B000AF78600A00DF
:10053000FB1C1A7001227B689A401300FB60FB1CB5
:100540001B78002B04D0FB681800FFF7D4FF03E0F2
:10055000FB681800FFF7DBFFC046BD4604B080BD56
:1005600080B582B000AF7860D0231B067A685A62EB
:10057000C046BD4602B080BD80B582B000AF786095
:10058000D0231B067A689A62C046BD4602B080BD81
:1005900080B584B000AF78600A00FB1C1A7001229D
:1005A0007B689A401300FB60FB1C1B78002B04D077
:1005B000FB681800FFF7D4FF03E0FB681800FFF7A3
:1005C000DBFFC046BD4604B080BD000080B582B0F0
:1005D00000AF00237B6006F072FFFA239B00180037
:1005E00002F00CFE09F0E8FA03007B607B68002B48
:1005F00005D0654B180006F04BFF7B68C0E0634AEE
:10060000634B1100180008F095FB01210B2000F04E
:10061000B7FA01210A2000F0B3FA01210B2000F003
:10062000AFFA05210D2000F0ABFA0521032000F000
:10063000A7FA0521092000F0A3FA0521052000F002
:100640009FFA01210D20FFF7A3FF01210320FFF7EF
:100650009FFF01210920FFF79BFF01210520FFF7E4
:1006600097FF01210A2000F033FB01210B2000F04D
:100670002FFB00210D2000F02BFB0021032000F0B8
:1006800027FB0021092000F023FB0021052000F0BA
:100690001FFB01210D20FFF746FF01210320FFF77B
:1006A00042FF01210920FFF73EFF01210520FFF74E
:1006B0003AFF0521022000F063FA01210220FFF732
:1006C00067FF01210220FFF72EFF0521072000F020
:1006D00057FA01210720FFF75BFF00210720FFF7F2
:1006E00022FF0521162000F04BFA01211620FFF70A
:1006F0004FFF00211620FFF716FF0521102000F004
:100700003FFA01211020FFF743FF01211020FFF7DE
:100710000AFF0521122000F033FA00211220FFF712
:1007200037FF1220FFF7C6FE0521132000F028FA3C
:1007300000211320FFF72CFF1320FFF7BBFE05213C
:10074000142000F01DFA00211420FFF721FF1420CF
:10075000FFF7B0FE0521152000F012FA0021152048
:10076000FFF716FF1520FFF7A5FE00F087F800F051
:100770005FF907F0D1F8074B180006F065FD01237B
:100780001800BD4602B080BD0003021040420F00B9
:10079000000004401403021080B582B000AF7860FE
:1007A000012000F00BF87B68180002F027FD002004
:1007B00000F004F8C046BD4602B080BD80B582B0EE
:1007C00000AF0200FB1D1A70FB1D1B7819001620DC
:1007D000FFF7A9FEC046BD4602B080BD80B582B01D
:1007E00000AF7860012000F00BF87B68180002F081
:1007F00005FD002000F004F8C046BD4602B080BDF3
:1008000080B582B000AF0200FB1D1A70FB1D1B7883
:100810001900002008F0C4FEC046BD4602B080BDED
:1008200080B584B000AF78600023FB6019E0FB68FE
:100830005A1CFA609B007A68D3181B681800FFF7EF
:10084000CDFFFB689B007A68D3181B68BB60BB6850
:10085000002B0ED0BB68180002F0D0FCFB680133FF
:10086000FB60FB689B007A68D3181B68002BDED105
:1008700000E0C046BD4604B080BD000080B582B037
:1008800000AFFB1D00221A701520FFF721FE0300A8
:100890001A00BB1D1A70FB1DF91DBA1D09781278CC
:1008A0000A431A70FA1DFB1D1B78DB181370142005
:1008B000FFF70EFE03001A00BB1D1A70FB1DF91D89
:1008C000BA1D097812780A431A70FA1DFB1D1B78AD
:1008D000DB1813701320FFF7FBFD03001A00BB1D8C
:1008E0001A70FB1DF91DBA1D097812780A431A7097
:1008F000FA1DFB1D1B78DB1813701220FFF7E8FDB3
:1009000003001A00BB1D1A70FB1DF91DBA1D0978E2
:1009100012780A431A70FB1DFA1D12780F214A4003
:100920001A70054BFA1D12781A70FB1D1B781800FF
:10093000BD4602B080BDC0465120012080B582B0C6
:1009400000AF7860064B1B781A007B68134001D01B
:10095000012300E000231800BD4602B080BDC04660
:100960005120012080B500AFC046BD4680BD80B596
:1009700000AFC046BD4680BD90B587B000AFB9603E
:100980007A600F217B18021C1A707868BA687B188D
:100990001978064C030020001FF01EFC03007B6149
:1009A0007B691800BD4607B090BDC04600000440FA
:1009B00080B584B000AF786039603A687B680548DC
:1009C00019001FF049FC0300FB60FB681800BD46DE
:1009D00004B080BD0000044080B584B000AF7860F2
:1009E00039600023FB6018E07B681B881B0A9BB200
:1009F000DAB208217B181A707B681B88DAB27B1880
:100A00005A707B180948022219001FF025FC7B68E8
:100A100002337B60FB680133FB60FB683A689A42F3
:100A2000E2D83B681800BD4604B080BD0000044019
:100A3000F0B5434CA54400AF0023424ABA181360F6
:100A40001DF0B2FF031EFBD03F4D7C193F49B2237E
:100A50009B00FB18012218001AF0B0FB0300237062
:100A60007B191B78002B0BD00123364ABA18136070
:100A70007B191A78364B1100180006F009FD56E074
:100A8000344B1968304D7C196823FB18012218007B
:100A90001AF0E6FB030023707B191B78002B0BD0A8
:100AA0000223284ABA1813607B191A782A4B1100BE
:100AB000180006F0EDFC3AE0264B1A68274B1100AF
:100AC000180006F0E5FC264B180006F0BDFB03E01D
:100AD0003B1D180006F0DCFC6826BA193B1D64219A
:100AE00018001BF0AEFA031EF2D11E4B180006F0E0
:100AF000ABFB154D7C19BB1918001BF06EFA0300F7
:100B000023707B191B78002B0BD003230D4ABA18D6
:100B100013607B191A78144B1100180006F0B8FC0A
:100B200005E00A4B0022190000201AF047FB054B94
:100B3000FB181B681800BD460C4B9D44F0BDC04619
:100B4000C4FAFFFF3405000033050000340302102F
:100B5000380302100C0F00206403021088030210F7
:100B6000A4030210AC030210B40302103C05000001
:100B700080B582B000AF7860C046BD4602B080BD8F
:100B800080B588B000AF78600A00FB1C1A707B68E3
:100B90001800FFF7EDFF7B689B00124A9446634400
:100BA000FB614023BB61C0237B61FB691A68BB69A1
:100BB00053407A691340FA693A61FB603B698022CD
:100BC00052011343FA681A60C046C0460649FB1C2E
:100BD0001A787B68DB00CB1804331A60C046BD4628
:100BE00008B080BD04C001400040014080B588B01D
:100BF00000AF786008001100FB1C021C1A70BB1CBF
:100C00000A1C1A707B681800FFF7B2FF7B689B0014
:100C1000144A9918FB1C1B78002B01D0082200E015
:100C20000022BB1C1B78002B01D0042300E0002312
:100C30001343F961BB610C237B61FB691A68BB69D3
:100C400053407A691340FA693A61FB603B6980223C
:100C500052011343FA681A60C046C046C046BD46FA
:100C600008B080BD04C0014080B586B000AF786098
:100C70000A00FB1C1A707B681800FFF779FFFB1C49
:100C80001B78002B0ED07B689B00104A944663446F
:100C90007B6102233B617B698022920113433A69A5
:100CA0001A600EE07B689B00084A94466344FB6030
:100CB0000223BB60FB68C02292011343BA681A602A
:100CC000C046C046BD4606B080BDC04604C0014017
:100CD00080B588B000AF78600A00FB1C1A707B6892
:100CE0001800FFF745FF7B689B000F4A9A18FB1C12
:100CF0001B781B01FA61BB6130237B61FB691A68B9
:100D0000BB6953407A691340FA693A61FB603B69F9
:100D1000802252011343FA681A60C046C046C0469A
:100D2000BD4608B080BDC04604C0014080B58AB051
:100D300000AFF860B9603B60FB1D1A70BA68FB68D1
:100D40001100180000F0B2F8FB68DB089B003A685D
:100D5000D3187B62FB68072213409B00BA689A4055
:100D60001300BB60FB1D1B78002B0AD07B6A3B6223
:100D7000BB68FB613B6A802292011343FA691A60E7
:100D80000AE07B6ABB61BB687B61BB69C0229201E0
:100D900013437A691A60C046C046BD460AB080BD9A
:100DA00090B587B000AFF860B960FB1D1A70D02312
:100DB0001B061B68002B01D0074B00E0074B7B6133
:100DC0007C69FB1D1A78B968F8682300FFF7AEFF4D
:100DD000C046BD4607B090BD3041014000410140D2
:100DE00080B584B000AFF860B960FB1D1A70D023E5
:100DF0001B061A68104B9200D358FA68134005D0AE
:100E00000E4B0F4A0F48CC2103F06AFBD0231B0680
:100E10001B68094A99008958FA681143064A9B00E1
:100E20009950FB1D1A78BB6819000D2000F0ECFBEF
:100E3000C046BD4604B080BDE81D0120D8030210A5
:100E4000700402100404021080B582B000AF786014
:100E50003960D0231B061A68104B9200D3587A6869
:100E6000134005D10E4B0F4A0F48D62103F038FB33
:100E70003B6819000D2000F031FDD0231B061B68D4
:100E8000064A99008A587968C9431140034A9B0071
:100E90009950C046BD4602B080BDC046E81D012045
:100EA00044040210A40402100404021080B582B0AD
:100EB00000AF786039607B681800FFF759FE7B68E7
:100EC000072213409A0006487B68DB083968914086
:100ED0000A003C339B001A50C046BD4602B080BD9C
:100EE0000040014080B582B000AF7860D0231B067F
:100EF00001217A6891400A009A62D0231B060121E1
:100F00007A6891400A009A617B6805211800FFF712
:100F100037FEC046BD4602B080BD000080B586B039
:100F200000AF0B237B607B680F4A944663449B00B1
:100F30007B61EFF310833B6172B63B69FB607B69B9
:100F4000BB60C046BB681B685A425341DBB2002BF2
:100F5000F8D1BFF35F8FC046C046C046FB6818009B
:100F6000BD4606B080BDC0464000003480B588B0A4
:100F700000AF78600B23FB60FB680E4A9446634425
:100F80009B00FB617B68BB61FB697B61BFF35F8F8B
:100F9000C046C0467B6900221A60C046BB693B61FF
:100FA0003B6983F31088C046C046C046BD4608B0C2
:100FB00080BDC0464000003480B582B000AF78608C
:100FC00039603B68DB087A68D3181B7819003B68E6
:100FD0000722134001229A4013000B405A1E9341EE
:100FE000DBB21800BD4602B080BD80B586B000AF50
:100FF000F860B9607A60FFF791FF03007B61BA681F
:10100000FB6811001800FFF7D7FF031E05D0BA6870
:101010007B681100180003F091FABB68DB08FA68DE
:10102000D3181978BB680722134001229A40130095
:10103000DAB2BB68DB08F868C3180A43D2B21A7088
:101040007B691800FFF792FFC046BD4606B080BD21
:1010500080B588B000AFF8607A603B600B23FB1866
:101060000A1C1A70FFF75AFF03007B6101235B42E1
:10107000FB617B68BB6125E0BA69FB681100180061
:10108000FFF79AFF03001A0001235340DBB2002B45
:1010900015D0BB69DB08FA68D3181978BB69072239
:1010A000134001229A401300DAB2BB69DB08F868EA
:1010B000C3180A43D2B21A70BB69FB6106E0BB6970
:1010C0000133BB61BA693B689A42D5D97B69180084
:1010D000FFF74CFFFB69002B08DA0B23FB181B788A
:1010E000002B03D0BB6A180003F028FAFB69180034
:1010F000BD4608B080BD000080B584B000AF786008
:101100003960FFF70BFF0300FB603A687B68110052
:101110001800FFF751FF031E05D1114B114A124869
:10112000332103F0DDF93B68DB087A68D3181A78BD
:101130003B6807210B40012199400B00DBB2DB43E8
:10114000D9B23B68DB087868C3180A40D2B21A707B
:10115000FB681800FFF70AFFC046BD4604B080BD1B
:10116000C80402102C050210E804021080B500AF7C
:10117000044B1B68022213405A1E9341DBB2180035
:10118000BD4680BD00C0064080B584B000AF0023DE
:10119000FB6012E0FB687B607B680C4A944663440A
:1011A0009B00BB60BFF35F8FC046C046BB68002298
:1011B0001A60C046FB680133FB60FB681F2BE9D94E
:1011C000C046C046BD4604B080BDC04640000034A5
:1011D00080B582B000AF094B1B785A1CD1B2074AC8
:1011E00011707B60054B1B78172B02D9034B102223
:1011F0001A707B681800BD4602B080BD100F002039
:1012000080B582B000AF7860C046BD4602B080BDF8
:1012100080B500AF024B9B681800BD4680BDC0463C
:1012200000ED00E080B582B000AF78607B680122FD
:1012300013431800BD4602B080BD80B582B000AF38
:1012400078607B68012293431800BD4602B080BDE0
:1012500080B58AB000AFF860B9607A60FFF7D8FF58
:101260000200FB6810339B00D318BA681A60BFF302
:101270005F8FC04609237B617B690E4A94466344B5
:101280009B007B627B683B627B6AFB61BFF35F8F85
:10129000C046C046FB6900221A60C0463B6ABB617B
:1012A000BB6983F31088C046C046C046BD460AB03D
:1012B00080BDC0464000003480B582B000AF786089
:1012C0000A00FB1C1A707B681800FFF799FF0122C7
:1012D0007B689A40FB1C1B781900100000F01CF87A
:1012E000C046BD4602B080BD80B582B000AF786018
:1012F0007B681800FFF784FF01227B689A40054B4A
:101300001B6813405A1E9341DBB21800BD4602B061
:1013100080BDC04600E100E080B582B000AF7860DB
:101320000A00FB1C1A70FB1C1B78002B06D0074B15
:101330007A681A60064B7A681A6002E0054B7A6890
:101340001A60C046BD4602B080BDC04680E200E0E3
:1013500000E100E080E100E080B582B000AF78609D
:101360007B681800FFF74CFF044B01217A6891401D
:101370000A001A60C046BD4602B080BD00E200E02F
:1013800080B582B000AF78607A68054BD21A2F2101
:10139000002391425B41DBB21800BD4602B080BD24
:1013A000140F002080B582B000AF78607B68180011
:1013B000FFF726FFFFF72CFF02007B6810339B002E
:1013C000D3181B681800BD4602B080BD80B58AB036
:1013D00000AF786039607B681800FFF711FF0923C0
:1013E000BB60BB681D4A944663449B007B627B6A7A
:1013F000BB61EFF310837B6172B67B693B61BB69B4
:10140000FB60C046FB681B685A425341DBB2002BAD
:10141000F8D1BFF35F8FC046C046C0463B693B6210
:101420007B681800FFF7BEFF0300FB61FA690C4BF5
:101430009A4209D0FA693B689A4205D0094B0A4A98
:101440000A487C2103F04CF83A6A39687B68180036
:10145000FFF7FEFEC046BD460AB080BD4000003426
:10146000CD0100103C050210700702107405021037
:1014700080B586B000AF786039607B687B613B687F
:101480003B613A697B69D31A043BFB60FB680F4AF6
:10149000934207DBFB680E4A934203DCFB680122A0
:1014A000134005D00B4B0C4A0C48992103F018F857
:1014B000FB685B101BB25B055B0D1BB2084A134354
:1014C0001BB29BB21800BD4606B080BD00F8FFFFFE
:1014D000FE070000B40502108C070210740502100C
:1014E00000E0FFFF80B586B000AF786039607B68B0
:1014F0007B613B683B613A697B69D31A043B5B08BB
:10150000FB60FB68DB0A05D00E4B0F4A0F48A12198
:1015100002F0E6FFFB68DB0A9BB25B055B0D9BB24A
:101520000B4A13439AB27B681A80FB689AB27B68B5
:10153000023308490A4392B21A80C046BD4606B03B
:1015400080BDC046E4050210980702107405021021
:1015500000F0FFFF00F8FFFF80B584B000AF7860B7
:101560007B681B88DB0A9BB21C2B05D00D4B0E4AF7
:101570000E48A72102F0B4FF7B681B885B05FB6067
:10158000FB68002B02DA0A4A944663445B15FB6051
:10159000FB6802335B007A68D3181800BD4604B0BC
:1015A00080BDC046F4050210C80702107405021081
:1015B000FFFF1F0080B584B000AF78603960084B32
:1015C000FB603968FA687B685B1A5B415A43120D0D
:1015D000FA607B60FB685BB21800BD4604B080BD5A
:1015E000AAAA000080B582B000AF7860054A7B6887
:1015F00011001800FFF7DEFF03001800BD4602B01F
:1016000080BDC046140F002090B59BB000AFF860BD
:10161000B960FB1D1A70FB681800FFF7F1FD092384
:101620007B637B6BA04A944663449B00BB65BB6DA8
:101630007B64EFF310833B6472B63B6CFB637B6CA3
:10164000BB63C046BB6B1B685A425341DBB2002BE5
:10165000F8D1BFF35F8FC046C046C046FB6B7B65C9
:10166000924B1B785BB2002B05DA914B914A924862
:10167000CD2102F035FF8D4B1B785BB21A001300B1
:101680005B009B189B008D4A9B183B654F23FB1802
:10169000864A12781A703B6D06229A56834B1A704E
:1016A000FFF7B6FD0200FB6810339B00D3181B68E0
:1016B0007B667B6E1800FFF763FE03001A000123B0
:1016C0005340DBB2002B31D07A6E7D4B9A4205D06D
:1016D0007C4B784A7848D42102F002FF28243B1939
:1016E000794A1A803B6D0233784A11001800FFF7DF
:1016F000BFFE03001A0021007B185A807B18744A31
:101700009A807B18FF229A717B18FA1D1278DA7181
:101710007B18BA689A603B6D7A1813CA13C33B6D85
:101720001800FFF77FFD03007B66B3E07A6E634B22
:10173000DB43D3180C21180004F02CFF0B1E05D03E
:10174000644B5C4A5C48E02102F0CAFE00233B6621
:101750007B6E1800FFF771FD0300BB64BB6CFB657B
:1017600011E0FB6D3B66FB6D9B795BB2002B11DBDF
:10177000FB6D9B795BB21A0013005B009B189B000A
:101780004E4A9B18FB65FB6DDB79FA1D12789A4275
:10179000E7D300E0C0463B6E002B41D01C217B18F4
:1017A0004D4A1A807B188F22D2015A803B6E9B795A
:1017B0005BB2002B0EDB3B6D1C1D3B6E043318002F
:1017C000FFF7CAFE030019002000FFF751FE0300D7
:1017D0001A0001E0BD231A021C243B199A803B6EBB
:1017E00006229A563B199A713B19FA1D1278DA7142
:1017F0003B19BA689A603B6E04333A6D11001800C9
:10180000FFF736FE03001A003B6E9A803B6E4F22B4
:10181000BA1812789A713B6D3A1913CA13C339E09A
:1018200010243B19284A1A803B6D0233274A1100C5
:101830001800FFF71DFE03001A003B195A803B6D8C
:101840000433BA6C11001800FFF712FE03001A00EF
:101850003B199A80BB6C1800FFF7C4FE03001A0006
:101860003B199A713B19FA1D1278DA713B19BA6863
:101870009A603B6D3A1913CA13C3BB6C164A1A809F
:10188000BB6C8F22D2015A803B6D1800FFF7CAFC57
:1018900003007B667A6D796EFB681800FFF7D8FC51
:1018A000C046BD461BB090BD400000345B20012007
:1018B0000C060210B007021074050210140F00206D
:1018C000CD0100103406021000A1FFFF440F0020DC
:1018D00000BDFFFF5C0602100148000090B593B008
:1018E00000AF786039600923FB60FB68844A944646
:1018F00063449B00BB63BB6BFB61EFF31083BB6175
:1019000072B6BB697B61FB693B61C0463B691B6882
:101910005A425341DBB2002BF8D1BFF35F8FC04670
:10192000C046C0467B697B63FFF772FC02007B68A0
:1019300010339B00D3181B687B647A6C714B9A42FE
:1019400000D1D0E07A6C3B689A4200D1CBE07B6C4E
:101950001800FFF715FD031E00D1C6E03323FC1865
:101960007B681800FFF7C0FC030023707B68002130
:101970001800FFF7A1FCBFF35F8FC046FEF773FCB2
:101980000300FB62FB6A002B0BD07B681033FA6A02
:101990009A4206D05C4B5D4A2C21FF315C4802F034
:1019A0009FFD00233B647B6C1800FFF746FC03009F
:1019B000BB62BB6AFB6311E0FB6B3B64FB6B9B7917
:1019C0005BB2002B10DBFB6B9B795BB21A00130040
:1019D0005B009B189B004F4A9B18FB63FB6B9B684B
:1019E0003A689A42E8D100E0C046FB6B9B683A68CF
:1019F0009A4268D127217B18FA6B92791A700A00F3
:101A0000BB181B787F2B39D8BB1800229A561300BD
:101A10005B009B189B003F4A9B183B623B6A9A689D
:101A2000FB6B9A603B6ADA79FB6BDA713B6A0622E0
:101A30009A56FB6B9A713B6A9B795BB2002B0EDB6B
:101A4000FB6B1C1D3B6A04331800FFF785FD030088
:101A500019002000FFF70CFD03001A0001E0BD2370
:101A60001A02FB6B9A802C4B00229A563B6A9A71A1
:101A7000294B2722BA1812781A702BE0FB6A002B28
:101A800019D13B6C002B06D03B6CFF229A713B6C4A
:101A9000224A9A8001E01B4B7B641F4B00229A561E
:101AA000FB6B9A71FB6B1800FFF79CFD03001A009B
:101AB000194B1A700EE0FB6B0433194A1100180021
:101AC000FFF710FD06E0174B104A6021FF31104868
:101AD00002F006FD3323FB181A787B68110018000A
:101AE000FFF7EAFB01E0074B7B647A6B796C7B685C
:101AF0001800FFF7ADFBC046BD4613B090BDC04611
:101B000040000034CD010010D0060210D8070210AA
:101B100074050210140F00205B20012000BDFFFFA0
:101B20004E0F0020F406021080B584B000AF78603C
:101B30000A00FB1C1A707B681800FFF761FB7B68CA
:101B4000032293430E4A94466344FB60FB681B6880
:101B50007A6803210A40D200FF2191400A00D24353
:101B60001A40FB1C19787B6803200340DB00994076
:101B70000B001A43FB681A60C046BD4604B080BD26
:101B800000E400E090B593B000AF78607B68180087
:101B9000FFF748FB0300FB63FB6B1800FFF7F0FB4C
:101BA000031E06D15A4B5B4AC22149005A4802F033
:101BB00097FCFEF758FB0300BB63BB6B002B06D101
:101BC000564B544A8821FF31534802F089FC0923BF
:101BD000BB61BB69524A944663449B007B637B6B49
:101BE000BB62EFF310837B6272B67B6A3B62BB6AB7
:101BF000FB61C046FB691B685A425341DBB2002BB4
:101C0000F8D1BFF35F8FC046C046C0463B6A3B6316
:101C10002F23FC187B681800FFF7E4FC03002370F7
:101C2000FFF7F6FA0200BB6B9B00D3181B68FA6B38
:101C30009A4208D1FFF7ECFA0200BB6B9B00D31865
:101C4000384A1A6041E04723FB1800221A7000232B
:101C50003B642BE034493A6C13005B009B189B00FB
:101C6000CB1806331B785BB22F22BA18127852B207
:101C70009A4218D12C493A6C13005B009B189B00C8
:101C8000CB180633FF221A7027493A6C13005B0009
:101C90009B189B00CB180433244A1A804723FB1857
:101CA00001221A7005E03B6C01333B643B6C032B53
:101CB000D0D94723FB181B78002B06D11C4B154AA3
:101CC000CC214900144802F00BFC1A4B00229A5612
:101CD0007B689A71174B2F22BA1812781A707B6B97
:101CE0007B613B6B3B617B69FB60BFF35F8FC046F1
:101CF000C046FB6800221A60C0463B69BB60BB68F7
:101D000083F31088C046C046C046BD4613B090BDA0
:101D1000FC060210EC0702107405021024070210E2
:101D200040000034CD010010140F002000BDFFFF63
:101D3000300702105B20012080B584B000AF0B4B50
:101D40007B600B4BFB600023BB6007E0FB681A1D48
:101D5000FA607A681A60BB680133BB60BB68072B06
:101D6000F4D9C046C046BD4604B080BD80808080A6
:101D700000E400E080B582B000AF78607B681F228D
:101D8000D31A1800BD4602B080BD000090B583B0E4
:101D900000AF7860D0231B061A68074BD4187B6805
:101DA0001800FFF7E7FF030019002000FFF7A4F970
:101DB000C046BD4603B090BD3C20012080B586B032
:101DC00002AF0200FB1D1A70D0231B061A680C4BD1
:101DD000D018FB1D19780B4B009305230022FFF749
:101DE00037F90300FB60FB68002B03DBFB681F2255
:101DF000D31AFB60FB681800BD4604B080BDC04626
:101E00003C2001205407021080B582B000AF38603A
:101E100079603A687B6810001900BD4602B080BD49
:101E200080B584B000AFF8603A607B603A687B6848
:101E3000002B05DA074B084A08483F2102F050FB07
:101E4000F9683A687B680A604B60C046BD4604B0DA
:101E500080BDC04608080210D008021024080210F5
:101E600080B584B000AF786001F06CFA02000B001E
:101E7000082179180800FFF7D3FF7968BA68FB6872
:101E80000A604B607868BD4604B080BD80B58AB0FA
:101E900000AFF8603A607B603A687B681000190018
:101EA000FFF7B2FF02000B00BA61FB61B869F96984
:101EB0003A6B7B6B12184B413A627B62FA697B6A20
:101EC0009A4207D8FA697B6A9A4208D1BA693B6A92
:101ED0009A4204D901225242D3173A627B623A6A8B
:101EE0007B6A102179180800FFF79AFFF9683A69B0
:101EF0007B690A604B60F868BD460AB080BDB0B52A
:101F00008AB000AFF8603A607B603A687B68100086
:101F10001900FFF779FF02000B00BA61FB61BB6B90
:101F20001C0000231D00FA2292000023200029003B
:101F300004F0FCFE02000B0010001900BA69FB69F6
:101F400012184B413A627B62FA697B6A9A4207D85F
:101F5000FA697B6A9A4208D1BA693B6A9A4204D903
:101F600001225242D3173A627B623A6A7B6A10219D
:101F700079180800FFF754FFF9683A697B690A602D
:101F80004B60F868BD460AB0B0BD90B589B002AFED
:101F9000F8603A607B601023FB181800FFF760FFC1
:101FA000FC68386979693A687B680092019302009D
:101FB0000B002000FFF76AFFF868BD4607B090BD30
:101FC00080B586B002AF786039600823FB1818002E
:101FD000FFF746FF7868BA68FB6839680091FFF739
:101FE0008EFF7868BD4604B080BD90B583B000AF69
:101FF000786008001100BB1C021C1A803B000A1C00
:102000001A807C68FFF7E4F803001900200000F054
:1020100011F87B68BA1C12889A807B683A00128893
:10202000DA80BFF35F8FC046C046C046BD4603B0EE
:1020300090BD000080B584B000AF786039603B6827
:10204000FB60FB68054A944663449B001A007B686A
:102050001A60C046BD4604B080BDC0464000003492
:1020600080B582B000AF386079603A687B68100054
:102070001900BD4602B080BD80B584B000AFF860E5
:102080003A607B603A687B68002B05DA074B084AA8
:1020900008483F2102F024FAF9683A687B680A6030
:1020A0004B60C046BD4604B080BDC046E808021083
:1020B000700C021004090210B0B586B000AF386091
:1020C00079603A687B6810001900FFF7C9FF0200C9
:1020D0000B003A617B617B691C0000231D0023001B
:1020E000FB600D4B5B6ABB60BA68FB689A420AD31F
:1020F000094B9A6A3B699A4203D2BA68FB689A42D2
:1021000001D0012300E000231A1C01231340DBB29D
:102110001800BD4606B0B0BD0040054080B584B093
:1021200000AF786001F00EF902000B000821791869
:102130000800FFF7A1FF7968BA68FB680A604B6086
:102140007868BD4604B080BD80B58AB000AFF86045
:102150003A607B603A687B6810001900FFF780FFE7
:1021600002000B00BA61FB61B869F9693A6B7B6BDD
:1021700012184B413A627B62FA697B6A9A4207D82D
:10218000FA697B6A9A4208D1BA693B6A9A4204D9D1
:1021900001225242D3173A627B623A6A7B6A10216B
:1021A00079180800FFF768FFF9683A697B690A60E7
:1021B0004B60F868BD460AB080BD90B589B002AFEB
:1021C000F8603A607B601023FB181800FFF7A6FF49
:1021D000FC68386979693A687B680092019302006B
:1021E0000B002000FFF7B0FFF868BD4607B090BDB8
:1021F000B0B584B000AFB860F9603A607B603A680F
:102200007B6810001900FFF72BFF04000D00BA686F
:10221000FB6810001900FFF723FF02000B00A41A4F
:102220009D4122002B0010001900BD4604B0B0BD36
:1022300080B588B004AFB860F9607A603B6000F0A8
:102240009DFABA68FB6818217918097802913968F3
:1022500001917968009100F079FD03001800BD46F6
:1022600004B080BD80B582B000AF786000F086FA1F
:1022700002007B681900100000F032FE0300180015
:10228000BD4602B080BD000080B582B000AF78606E
:102290000A00FB1C1A70FB1C1B78002B05D07B6806
:1022A0001B7BFA1C12789A4205D9094B094A0A4845
:1022B000682102F015F97B681968FB1C1A78130075
:1022C0005B009B18033BCB181800BD4602B080BDD5
:1022D0004C090210FC0B02106809021080B584B092
:1022E00000AF786008001100FB1C021C1A70BB1CB8
:1022F0000A1C1A70FB1C1A787B6811001800FFF783
:10230000C3FF0300FB60FB1C1B78002B05D11F4B98
:102310001F4A20486F2102F0E3F8BB1C1B78002BFA
:1023200005D11D4B1A4A1B48702102F0D9F8FA1C3E
:10233000BB1C12781B789A4205D1184B144A1548D9
:10234000712102F0CDF8BB1C1A787B6811001800CF
:10235000FFF79AFF0300BB60BB68FA1C12789A7003
:10236000FB681B78002B04D1FB68BA1C12781A702A
:1023700007E0FB681A78BB685A70FB68BA1C1278D1
:102380001A70C046BD4604B080BDC046B4090210F4
:10239000E80B021068090210C0090210CC090210F3
:1023A00090B583B000AF786008001100FB1C021CE0
:1023B0001A70BB1C0A1C1A70FB1C1B78002B02D164
:1023C000BB1C1B7827E0BB1C1B78002B02D1FB1C1D
:1023D0001B7820E07B685C687B689868BB1C1A7877
:1023E000FB1C1B781900A047031E0AD0BB1C1A78DF
:1023F000FB1C19787B681800FFF770FFFB1C1B782B
:1024000009E0FB1C1A78BB1C19787B681800FFF7E1
:1024100065FFBB1C1B781800BD4603B090BD80B59E
:1024200084B000AF78607B689B7B002B01D10023D8
:1024300026E00F217B187A68927B1A707B181A7835
:102440007B6811001800FFF71FFF0300BB60BB682B
:102450005A787B689A737B689B7B002B02D17B68E0
:102460000022DA73BB6800229A70BB689A78BB6856
:102470005A70BB685A78BB681A700F23FB181B7818
:102480001800BD4604B080BD80B584B000AF786050
:102490000A00FB1C1A70FB1C1B78002B05D1164B85
:1024A000164A1748A52102F01BF8FB1C1A787B6816
:1024B00011001800FFF7E8FE0300FB60FB68002234
:1024C0009A70FB689A78FB685A70FB685A78FB68C8
:1024D0001A707B68597BFB1C1A787B681800FFF721
:1024E0005FFF03001A007B685A737B685B7B1800F0
:1024F000BD4604B080BDC046E4090210440C021081
:102500006809021080B582B000AF78607B685B7BA1
:102510001800BD4602B080BD80B582B000AF7860C3
:102520000A00FB1C1A707B685B7BFA1C12789A42CB
:102530000AD0FB1C1A787B6811001800FFF7A4FE74
:1025400003009B78002B01D0012300E000231A1C1C
:1025500001231340DBB21800BD4602B080BD00006D
:1025600080B582B000AF78600A00FB1C1A70FB1CBB
:102570001B78002B08D0FB1C1A787B681100180010
:10258000FFF7CAFF031E05D00E4B0F4A0F48F62176
:1025900001F0A6FF7B68DB7B002B0AD07B68DA7B2F
:1025A0007B6811001800FFF76FFE0200FB1C1B7810
:1025B00053707B68FA1C1278DA73C046BD4602B0CD
:1025C00080BDC046E8090210880C0210680902109C
:1025D00080B500AF034B5B685A1E9341DBB2180015
:1025E000BD4680BD6C0F002080B582B000AF786022
:1025F0000A00FB1C1A70FB1C1B78002B06D07B68A2
:102600001B681B7BFA1C12789A4205D9094B0A4AAF
:102610000A483B2101F064FF7B689A68FB1C1B7829
:1026200007498C4663441B01D3181800BD4602B00D
:1026300080BDC0460C0A0210080C0210300A0210BD
:10264000FFFFFF0F80B582B000AF78600A00FB1C6F
:102650001A70FB1C1B78002B06D07B681B681B7B49
:10266000FA1C12789A4205D9074B084A08484021BB
:1026700001F036FF7B68DA68FB1C1B78013BD3183E
:102680001800BD4602B080BD0C0A0210980C021062
:10269000300A0210B0B584B000AF786008001100B5
:1026A000FB1C021C1A70BB1C0A1C1A707B68FB60A6
:1026B000FB1C1A78FB6811001800FFF795FF030058
:1026C0001A685B6810001900FFF7CAFC04000D00CF
:1026D000BB1C1A78FB6811001800FFF785FF030088
:1026E0001A685B6810001900FFF7BAFC02000B00C3
:1026F0000121AB4204D801D1A24201D80023191C08
:10270000CBB21800BD4604B0B0BD80B582B000AFFA
:102710000200FB1D1A70BB1D0A1C1A70FB1D1B78E2
:102720001A02BB1D1B7813431800BD4602B080BDC2
:1027300080B500AFFFF74CFF03001A0001235340A0
:10274000DBB2002B0BD00A4B1868094B094A102149
:1027500001F0E9F9064B0321180000F0C5FA064B19
:102760000A211800FFF766FCC046BD4680BDC04682
:102770006C0F0020952600100420012080B500AFCA
:10278000FFF726FF031E05D1044B054A05485C21CF
:1027900001F0A6FE044B1800BD4680BD680A021079
:1027A000140C0210300A02106C0F0020F0B589B032
:1027B00000AFF8603A607B60382108200B18DB1905
:1027C0001B78002B1ED0FB681A680B18DB191B78CE
:1027D00019001000FFF7A0FE03001A000123534068
:1027E000DBB2002B05D1384B384A3948652101F05E
:1027F00077FE1F23FB18382208215218D2191278AD
:102800001A7008E0FB681B681F22BC181800FFF74D
:1028100006FE030023701F257B191B78002B4BD06D
:102820007B191A78FB6811001800FFF7DDFE030022
:10283000BB61B9693A687B680A604B60BB69BA6B77
:102840009A60BB69FA6BDA60FB681A687B191B78BF
:1028500019001000FFF718FE03001A007B191B78FF
:10286000934229D1FB681B7D19001726BC193A68D1
:102870007B68080000F036FF03002370BB191B784B
:10288000002B11D03C2308229B18DB191B78012256
:102890005340DBB2002B07D0FB681A687B191B780A
:1028A0001900100001F0AAFABB6C002B04D0BB6C1D
:1028B0001722BA1812781A701F23FB181B781800F9
:1028C000BD4609B0F0BDC0468C0A02102C0C0210A7
:1028D000300A0210F0B5AFB006AF7860D94B7A6815
:1028E0009200D3588C22BA1813601023FB181800DA
:1028F000FFF714FC00239822BA181360002200236B
:10290000BA60FB6000239422BA1813609F23FB185F
:1029100000221A708C23FB181B685B68FB66EFF3C0
:102920001083BB6672B6BB6E7B66FB6E3B66C046B1
:102930003B6E1B685A425341DBB2002BF8D1BFF308
:102940005F8FC046C046C0467B6E8822BA181360AF
:102950008C26BB191B681B6887257C191800FFF79C
:10296000D1FD030023707B191B78002B00D17DE083
:102970007B191A78BB191B6811001800FFF734FE89
:1029800003008022B9180B60BB181B681A685B68CB
:1029900038697969FFF72CFC02000B00002B56DC2C
:1029A00001D1002A53D18C23FB181B681B687F259B
:1029B0007C190021180001F0FFF9030023707A1937
:1029C0008723FB1812781B789A4205D09E4B9F4AAA
:1029D0009F488C2101F084FD80217B181B681A68B8
:1029E0005B68BA60FB600A00BB181B689B68982193
:1029F00078180360BB181B68DB689422BA18136050
:102A00007B181B68002B05D1924B904A904890216F
:102A100001F066FD8723FB181A788C243B191B688C
:102A200011001800FFF70EFE020093217B181278A8
:102A30001A707F23FB181A787B181B781100180076
:102A4000FFF763FE02003B191B681A610EE080234A
:102A5000FB181B681A685B687968080000F042FE82
:102A6000031E03D09F23FB1801221A708C243B19EC
:102A70001B685B68FB658823FB181B68BB65FB6DE7
:102A80007B65BFF35F8FC046C0467B6D00221A6036
:102A9000C046BB6D3B653B6D83F31088C046C046A6
:102AA00098257B191B68002B00D111E18723FB18A7
:102AB0001A789323FB181B7811001800FFF725FEE6
:102AC0009423FB181A687B191B68110098470200B1
:102AD0000B003A677B673B191B685B68FB64EFF38D
:102AE0001083BB6472B6BB6C7B64FB6C3B64C046FA
:102AF0003B6C1B685A425341DBB2002BF8D1BFF349
:102B00005F8FC046C046C0467B6C8822BA181360EF
:102B10007B6F002B46DA8C22BB181B681B69002BCD
:102B200040D0BB181B681C698723FB181A789323B5
:102B3000FB181B7811001800FFF7E7FD03009C420B
:102B400005D0454B414A42489F2101F0C9FC3A6FEC
:102B50007B6F00200021801A994102000B001000B9
:102B600019001823FC18BA68FB6800900191200036
:102B7000FFF7EAFABA69FB698C2179180868002125
:102B800004910121039187217918097802919421F8
:102B90007918096801919821791809680091FFF75F
:102BA00005FE73E07B6F002B05DC7B6F002B55D19E
:102BB0003B6F002B52D08C22BB181B681B69002B6B
:102BC0004CD0BB181B681C698723FB181A78932309
:102BD000FB181B7811001800FFF797FD03009C42BB
:102BE00005D01D4B194A1A48A22101F079FC202377
:102BF000FB181800FFF792FA3A6F7B6F28217C18B8
:102C0000386A796A0092019302000B002000FFF7F6
:102C10009BFABA6AFB6A8C21791808680021049132
:102C2000012103918721791809780291942179185B
:102C3000096801919821791809680091FFF7B6FD9C
:102C400024E0C0461C0E0120B40A0210540C0210ED
:102C5000300A0210CC0A0210D80A02108C243B1948
:102C60001B681A6887257B191B7819001000FFF76D
:102C700077FC7B191A783B191B6811001800FFF7C5
:102C8000E1FC03001A780132D2B21A708C217B1851
:102C90001B6800221A617B181B685B68FB63882332
:102CA000FB181B68BB63FB6B7B63BFF35F8FC04686
:102CB000C0467B6B00221A60C046BB6B3B633B6B1C
:102CC00083F31088C046C0469F23FB1801221A7068
:102CD0009F23FB181B78002B00D006E6C046C04699
:102CE000BD4629B0F0BDC04680B584B000AF786065
:102CF00039603B68180000F00FFB3B68180000F0DB
:102D0000D3FD0F4A3B681100180000F051FCFEF79C
:102D10005FFA0300FB60FB680A4A944663449B0029
:102D20001A007B685A603B68DAB27B681A75064BFA
:102D30003A6892007968D150C046BD4604B080BD63
:102D4000D5280010400000341C0E0120B0B59EB004
:102D500006AF7861BA60FB601F23FB1800221A706F
:102D60005B23FB1800221A707B695B687B64EFF3BE
:102D700010833B6472B63B6CFB637B6CBB63C046E9
:102D8000BB6B1B685A425341DBB2002BF8D1BFF337
:102D90005F8FC046C046C046FB6B7B6553257C19E0
:102DA000BA68FB6878691F217918049100210391A2
:102DB00000210291796F0191396F0091FFF7F6FCC4
:102DC000030023707B191B78002B0BD07B191A781A
:102DD0007B6911001800FFF735FC02005B23FB182C
:102DE00012781A707B695B687B637B6D3B637B6BDE
:102DF000FB62BFF35F8FC046C046FB6A00221A60C9
:102E0000C0463B6BBB62BB6A83F31088C046C046BA
:102E10005323FB181B78002B02D101235B425AE09D
:102E20001F23FB181B78002B0BD15323FB181A7898
:102E30005B23FB181B7811001800FFF766FC0300EA
:102E400000E00023FB651F23FB181B78002B41D0FB
:102E50007823FB181B78002B3CD0796FFA6D3B6F01
:102E60001000984702000B00BA64FB64BB6CFA6C5C
:102E7000134302D10023FB652CE0FB6C002B13DA1B
:102E8000BA6CFB6C00200021801A994102000B00F3
:102E9000100019000823FC18BA68FB680090019123
:102EA0002000FFF751F95BE72023FB181800FFF71C
:102EB00035F9BA6CFB6C3C00386A796A0092019370
:102EC00002000B002000FFF73FF93A687B68BA6008
:102ED000FB6045E7FB6D1800BD4618B0B0BD0000B3
:102EE000F0B58FB000AF786039603723FB1800224F
:102EF0001A707B685B68BB62EFF310837B6272B60B
:102F00007B6A3B62BB6AFB61C046FB691B685A4235
:102F10005341DBB2002BF8D1BFF35F8FC046C046F0
:102F2000C0463B6A3B632F217B183A681A707B6866
:102F30001A687B181B7819001000FFF7EDFA031EC2
:102F400035D07B681B693A689A4206D12A4B2B4AD6
:102F5000852149002A4801F0C3FA3B681A0A2E2449
:102F60003B191A702F257B191A787B6811001800FD
:102F7000FFF768FB03001B783A1912789A421ED1BA
:102F80007B681A683726BC197B191B78190010005A
:102F900000F034FF03002370BB191B78002B0ED107
:102FA000184B164A1221FF31154801F099FA7B6837
:102FB0001B693A689A4202D17B6800221A617B68D9
:102FC0005B68BB613B6B7B61BB693B61BFF35F8F40
:102FD000C046C0463B6900221A60C0467B69FB6060
:102FE000FB6883F31088C046C0463723FB181B7864
:102FF0001800BD460FB0F0BD440B0210AC0C02101F
:10300000300A0210680B021080B58CB000AF7860F7
:1030100039601C4B1B68BB61EFF310837B6172B698
:103020007B693B61BB69FB60C046FB681B685A4219
:103030005341DBB2002BF8D1BFF35F8FC046C046CF
:10304000C0463B69FB620F4B1B68BB62FB6A7B623D
:10305000BB6A3B62BFF35F8FC046C0463B6A00223B
:103060001A60C0467B6AFB61FB6983F31088C04627
:10307000C04640BFC0460022002310001900BD46D4
:103080000CB080BD0420012080B596B002AF38603E
:103090007960FDF7E8F8031E03D04A4B180001F0F1
:1030A0004DFA3A687B6810001900FEF7D9FF02005C
:1030B0000B003A647B643A6C7B6C06204042C1177B
:1030C00012184B41BA64FB64FA6C7B6C9A4207D8C5
:1030D000FA6C7B6C9A4207D1BA6C3B6C9A4203D96A
:1030E00000220023BA64FB64BA6CFB6C08217918D7
:1030F0000800FEF7C1FF1023FB181800FFF70EF8B9
:10310000BA68FB6838697969FFF772F802000B004A
:10311000002B02DC4BD1002A49D02B4AB868F96851
:10312000002300930023FFF783F8031E3FDB31E009
:10313000264B1B68BB62EFF310837B6272B67B6A1F
:103140003B62BB6AFB61C046FB691B685A42534144
:10315000DBB2002BF8D1BFF35F8FC046C046C0463C
:103160003B6AFB63194B1B68BB63FB6B7B63BB6BED
:103170003B63BFF35F8FC046C0463B6B00221A60C3
:10318000C0467B6BFB62FB6A83F31088C046C04677
:1031900020BFC046BA68FB6810001900FEF78CFF1C
:1031A00003001A0001235340DBB2002BC0D13A6860
:1031B0007B681000190000F02BF9C046BD4614B022
:1031C00080BDC046900B0210093000100420012081
:1031D00080B584B000AF386079600823F9183A6888
:1031E0007B680800FEF7E9FFBA68FB681000190069
:1031F000FFF74AFFC046BD4604B080BDB0B582B0FF
:1032000000AF78607B681C0000231D00FA2292004A
:1032100000232000290003F089FD02000B001000AC
:103220001900FFF7D5FFC046BD4602B0B0BD000093
:1032300080B586B002AF38607960134A3868796823
:10324000002300930023FEF7F3FF0300FB60FB68FD
:10325000002B08DCC0463A687B6810001900FEF7B6
:103260002BFF03000CE020BFC046FB681800FEF7F0
:10327000F9FF3A687B6810001900FEF71DFF030094
:103280001800BD4604B080BD0930001080B582B082
:1032900000AF386079603A687B6810001900BD465D
:1032A00002B080BD80B584B000AFF8603A607B604A
:1032B0003A687B68002B05DA074B084A08483F212B
:1032C00001F00EF9F9683A687B680A604B60C04605
:1032D000BD4604B080BDC046C40C0210B40D02103F
:1032E000E00C021080B582B000AF7860C046BD46E9
:1032F00002B080BD80B582B000AF78607B681F22CD
:103300001A40044B012191400A001A60C046BD4694
:1033100002B080BD80E200E080B582B000AF78608E
:103320007B681800FFF7DEFF044A7968044B180039
:10333000FDF75BFEC046BD4602B080BD280D021001
:1033400054200120F0B587B000AF154E766A7E613B
:10335000134EB66A3E61124E766AFE607E69B446CE
:10336000FE68B44502D0FE687E61F1E7C0467E6922
:103370003E6000267E603E683300002632003E69D3
:103380003000002631001600064334000B431D00B8
:1033900022002B0010001900BD4607B0F0BDC0464A
:1033A0000040054080B588B000AF38607960FFF715
:1033B000C9FF02000B003A617B61386979693A689C
:1033C0007B6812184B41BA61FB617A69FB699A42CA
:1033D00007D87A69FB699A4208D13A69BB699A426F
:1033E00004D901225242D317BA61FB61BA69FB6961
:1033F000082179180800FFF755FFBA68FB6810002C
:10340000190000F005F8C046BD4608B080BD0000B8
:10341000B0B588B000AF386079603A687B6810005A
:103420001900FFF733FF02000B003A617B617B69F3
:103430001C0000231D002300FB600F4B5B6AFB6137
:1034400003E00D4B5B6AFB61C046FA69FB689A4278
:10345000F7D303E0084B5B6AFB61C046FA69FB687F
:103460009A4204D1044B9A6A3B699A42F2D3C0460D
:10347000BD4608B0B0BDC0460040054080B582B032
:1034800000AF78607B681800BD4602B080BD0000C8
:1034900080B58EB000AFEFF305833B633B6B3F22FB
:1034A0001340103BFB62FB6A1800FFF71BFF002371
:1034B0007B630A233B613B69384A944663449B0023
:1034C000BB62BB6A3B62EFF31083FB6172B6FB69C0
:1034D000BB613B6A7B61C0467B691B685A425341B2
:1034E000DBB2002BF8D1BFF35F8FC046C046C046A9
:1034F000BB697B622A4B0121FA6A91400A005A6338
:10350000284B1B781A00FB6ADA4013000122134093
:1035100024D0234B5A6A244BF96A8900CB589A422B
:1035200012D3224BFA6A9200D3587B630122FB6AC2
:103530009A401300DBB2DB43DBB21A4A1278134025
:10354000DAB2184B1A7009E0154A1549FB6A0433C0
:103550009B009A58FB6A04339B005A50BB6AFB607D
:103560007B6ABB60FB687B60BFF35F8FC046C04671
:103570007B6800221A60C046BB683B603B6883F3EF
:103580001088C046C0467B6B002B03D0FA6A7B6B69
:1035900010009847C046BD460EB080BD40000034C4
:1035A000004005406320012008200120445F0020E6
:1035B00080B590B000AF786039607B681800FFF785
:1035C00091FE7B681800FFF759FF0300FB630A2395
:1035D0003B623B6A3E4A944663449B00BB63BB6BC1
:1035E0003B63EFF31083FB6272B6FB6ABB623B6B1B
:1035F0007B62C0467B6A1B685A425341DBB2002B98
:10360000F8D1BFF35F8FC046C046C046BB6A7B633C
:103610003B68002B26D0FB6B1800FDF7C3FE0200B1
:103620002C4B9A4218D02B4AFB6B11001800FDF767
:10363000CDFEFB6B01211800FDF73EFE01227B68E9
:103640009A401300244AFA61BB61FB69802292010F
:103650001343BA691A60C046204B7A6892003968F1
:10366000D1501CE01D4B7A6892000021D1500122FC
:103670007B689A401300DBB2DB43DBB2184A127856
:103680001340DAB2164B1A70124AFB6B1100180085
:10369000FEF724F9FB6B00211800FDF70DFEBB6B54
:1036A0007B617B6B3B617B69FB60BFF35F8FC046D7
:1036B000C046FB6800221A60C0463B69BB60BB681D
:1036C00083F31088C046C046C046BD4610B080BDDA
:1036D000400000349134001038400540445F002021
:1036E00063200120B0B596B000AFF8603A607B600F
:1036F000FFF728FE02000B00BA64FB643A687B689F
:1037000010001900FFF7C2FD02000B003A647B6451
:103710007A6CFB6C9A420CD87A6CFB6C9A4203D19F
:103720003A6CBB6C9A4204D85723FB1801221A70DA
:10373000A4E05723FB1800221A700A233B623B6A5D
:10374000524A944663449B00FB63FB6B3B63EFF37D
:103750001083FB6272B6FB6ABB623B6B7B62C04646
:103760007B6A1B685A425341DBB2002BF8D1BFF38E
:103770005F8FC046C046C046BB6ABB633723FB1899
:10378000434A12781A700122FB689A401300DAB299
:103790003F4B1B781343DAB23D4B1A703D4B01216E
:1037A000FA6891400A005A633A493A6CFB6804335C
:1037B0009B005A507B6C1C0000231D002100364BDF
:1037C000FA689200D150334B1B6A0121FA6891408C
:1037D0000A0013400DD12F4B1B6C0121FA68914058
:1037E0000A00134035D12D4B2D4A2E48C12100F03F
:1037F00077FEFFF7A7FD02000B00796C994228D8ED
:10380000796C994202D1396C914222D85723FB1826
:1038100001221A701E4B1B7837243A1912789A42EB
:1038200017D01C4B0121FA6891400A001A62194B0B
:103830000121FA6891400A005A63FB681800FFF7FB
:103840001DFE03001800FFF755FD114B3A191278C1
:103850001A70FB6BFB61BB6BBB61FB697B61BFF3E8
:103860005F8FC046C0467B6900221A60C046BB69B4
:103870003B613B6983F31088C046C0465723FB1861
:103880001B781800BD4616B0B0BDC04640000034DD
:103890006320012000400540082001204C0D02104B
:1038A000CC0D0210700D021080B58EB000AF7860A4
:1038B0007B681800FFF716FD0A23FB60FB68254AAA
:1038C000944663449B007B637B6BFB61EFF3108347
:1038D000BB6172B6BB697B61FB693B61C0463B69FA
:1038E0001B685A425341DBB2002BF8D1BFF35F8F04
:1038F000C046C046C0467B693B63174B01217A68CE
:1039000091400A001A6201227B689A401300DBB2E0
:10391000DB43DBB2114A12781340DAB20F4B1A7054
:103920007B6BFB623B6BBB62FB6A7B62BFF35F8FAF
:10393000C046C0467B6A00221A60C046BB6A3B6232
:103940003B6A83F31088C046C046C046BD460EB0F1
:1039500080BDC04640000034004005406320012087
:1039600080B582B000AF78600A00FB1C1A70FB1CA7
:103970001B78002B05D07B681B7BFA1C12789A42BF
:1039800005D9094B094A0A48682100F0A9FD7B685E
:103990001968FB1C1A7813005B009B18033BCB18BB
:1039A0001800BD4602B080BDE80D0210740F021071
:1039B000040E021080B584B000AF786008001100DA
:1039C000FB1C021C1A70BB1C0A1C1A70FB1C1A7808
:1039D0007B6811001800FFF7C3FF0300FB60FB1CAE
:1039E0001B78002B05D11F4B1F4A20486F2100F088
:1039F00077FDBB1C1B78002B05D11D4B1A4A1B48B9
:103A0000702100F06DFDFA1CBB1C12781B789A42E5
:103A100005D1184B144A1548712100F061FDBB1CFB
:103A20001A787B6811001800FFF79AFF0300BB604B
:103A3000BB68FA1C12789A70FB681B78002B04D1C3
:103A4000FB68BA1C12781A7007E0FB681A78BB682A
:103A50005A70FB68BA1C12781A70C046BD4604B092
:103A600080BDC046500E0210600F0210040E0210FE
:103A70005C0E0210680E021090B583B000AF786043
:103A800008001100FB1C021C1A70BB1C0A1C1A70D7
:103A9000FB1C1B78002B02D1BB1C1B7827E0BB1C36
:103AA0001B78002B02D1FB1C1B7820E07B685C6834
:103AB0007B689868BB1C1A78FB1C1B781900A04710
:103AC000031E0AD0BB1C1A78FB1C19787B681800EF
:103AD000FFF770FFFB1C1B7809E0FB1C1A78BB1C6E
:103AE00019787B681800FFF765FFBB1C1B7818006E
:103AF000BD4603B090BD80B582B000AF78607B68F2
:103B00005B7B1800BD4602B080BD80B582B000AFBF
:103B100078607B680121180000F04EF9030018005E
:103B2000BD4602B080BD80B584B000AFF860B9601A
:103B30007A603B60BB68DAB2FB681A73FB687A682C
:103B40005A60FB683A689A60FB68180000F004F855
:103B5000C046BD4604B080BD90B585B000AF78606A
:103B60007B6800225A737B6801229A737B681A7BF8
:103B70007B68DA730F23FB1801221A7013E00F24FD
:103B80003B191A787B6811001800FFF7E9FE020064
:103B900021007B181B780133DBB253707B181A7835
:103BA0007B1801321A707B681B7B0F22BA181278BF
:103BB0009A42E4D37B681A7B7B6811001800FFF7F8
:103BC000CFFE030000225A70C046BD4605B090BD2E
:103BD000F0B585B000AF78600A00FB1C1A70FB1CC2
:103BE0001B78002B0AD0FB1C1A787B681100180088
:103BF000FFF7B6FE03005B78002B02D1FB1C1B789D
:103C00004AE00F26BB19FA1C12781A70FB1C1A78AE
:103C10007B6811001800FFF7A3FE02000E257B1938
:103C200052781A707B191A787B6811001800FFF718
:103C300097FE02000D23FB1852781A707B191A7830
:103C40007B6811001800FFF78BFE040000236370EF
:103C5000BB191A787B6811001800FFF781FE03007A
:103C600062785A707B191A78BB1919787B6818002A
:103C7000FFF702FF03001C000D23FB181A787B6876
:103C800011001800FFF7A4FF03001A007B68210051
:103C90001800FFF7F1FE03001800BD4605B0F0BDA7
:103CA00090B585B000AF786008001100FB1C021CC5
:103CB0001A70BB1C0A1C1A70FB1C1B78002B05D148
:103CC000384B394A3948382100F00AFCFB1C1A7875
:103CD0007B6811001800FFF743FE03005B78002BA0
:103CE00005D0334B304A31483A2100F0F9FBFB1C38
:103CF0001A787B6811001800FFF732FE03009B78EA
:103D0000002B05D02B4B284A28483B2100F0E8FB2C
:103D1000FB1C1A787B6811001800FFF721FE0300D6
:103D20001A780F23FC187B6811001800FFF750FF6A
:103D300003002370BB1C1B78002B12D07B68DB7B3D
:103D4000002B0AD07B68DA7B7B6811001800FFF734
:103D500007FE0200FB1C1B7853707B68FA1C12786C
:103D6000DA730F22BB181B78002B09D0BB181A7806
:103D70007B6811001800FFF7F3FD030000229A7022
:103D8000FB1C1A787B6811001800FFF7E9FD03009F
:103D900000225A700F23FB181B781800BD4605B08F
:103DA00090BDC046800E0210800F0210880E0210D7
:103DB000C40E0210EC0E0210B0B584B000AF7860F3
:103DC0000A00FB1C1A700F257C197B681800FFF78E
:103DD00092FE03002370FB1C1A782C003B19197803
:103DE0007B681800FFF75CFF03001A007B685A73BA
:103DF0003B191B781800BD4604B0B0BDB0B588B003
:103E000000AF78600A00FB1C1A70FB1C1B78002BAB
:103E100001D1002390E07B685B7BFA1C12789A4208
:103E200005D17B681800FFF770FE012384E0FB1CBE
:103E30001A787B6811001800FFF792FD0300BB6140
:103E4000BB699B78002B01D1002375E0BB699A7890
:103E50007B6811001800FFF783FD03007B617B691D
:103E60001B78FA1C12789A4204D1BB695A787B6994
:103E70001A7035E01F23FB187A6912781A701E2316
:103E8000FB1800221A701F23FB181A787B68110098
:103E90001800FFF765FD03003B613B695B78FA1C86
:103EA00012789A4208D1BB695A783B695A701E232E
:103EB000FB1801221A7008E01F217B183A6952781A
:103EC0001A707B181B78002BDDD11E23FB181B7882
:103ED000002B05D11A4B1B4A1B48672100F000FB41
:103EE000BB6900229A70BB699A78BB695A700F252A
:103EF0007C19FB1C19787B6801221800FFF7D0FEA3
:103F0000030023707B685B7B7A1912789A4205D193
:103F10000E4B0C4A0C486D2100F0E2FA7B68597B8D
:103F20000F23FB181A787B681800FFF7A5FD030024
:103F30001A007B685A7301231800BD4608B0B0BD53
:103F4000100F0210940F0210880E0210180F0210AA
:103F500090B583B000AF78607C68FDF739F9030055
:103F600019002000FEF766F87B68FF221A71BFF384
:103F70005F8FC046C046C046BD4603B090BD90B5F9
:103F800083B000AF78607C68FDF722F90300190068
:103F90002000FEF74FF87B68FF221A717B68002231
:103FA0005A71BFF35F8FC046C046C046BD4603B0DE
:103FB00090BD000080B582B000AF78607B68054A94
:103FC000944663445A425341DBB21800BD4602B0E6
:103FD00080BDC0460080FCBF80B582B000AF786075
:103FE0007B681800FFF7E6FF7B681800BD4602B04B
:103FF00080BD80B58AB000AFF860B9607A601A0001
:10400000FB1C1A70FB681800FFF7E6FF03002C3357
:104010001A00BB68053B59017B68013BDB00194373
:10402000FB1C1B78002B01D0022300E00023194366
:10403000FB1C1B78012B01D1042300E000230B4360
:104040007A623B626E23FB617B6A1A683B6A53406B
:10405000FA6913407A6ABA617B61BB6980225201B6
:1040600013437A691A60C046C046C046BD460AB0CE
:1040700080BD000080B584B000AF7860074BFB6066
:104080007B68BB60FB68802292011343BA681A60A8
:10409000C046C046BD4604B080BDC04600C000401A
:1040A00080B584B000AF78600B4BFB607B68BB6071
:1040B000FB68C02292011343BA681A60C04600E050
:1040C000C046054B9B68DB437A681340F8D1C04675
:1040D000C046BD4604B080BD00C0004080B582B07F
:1040E00000AF78607B681800FFF764FF031E02D002
:1040F00080231B0401E08023DB031800FFF7BAFFD5
:10410000C046BD4602B080BD80B582B000AF7860C9
:104110007B681800FFF74EFF031E02D080231B04AC
:1041200001E08023DB031800FFF7BAFFC046BD465D
:1041300002B080BD80B586B000AF786039600620DF
:1041400000F014FC031E01D1002339E07B68180045
:10415000FFF7C4FF7B681800FFF7D6FF7B680021DC
:10416000180000F091F83A687B681100180000F020
:104170002DF803007B617868002301220821FFF7F6
:1041800038FF7B681800FFF727FF03000E4A1A6309
:104190007B681800FFF720FF03002C333B611023DE
:1041A000FB603B69802292011343FA681A60C046A3
:1041B0007B681800FFF710FF030003229A647B69F5
:1041C0001800BD4606B080BD0103000080B588B070
:1041D00000AF78603960062000F0C8FB0300DB0008
:1041E0003968180002F0D6F903007B617B69DB09AE
:1041F000FB61FB69002B04D10123FB610023BB6140
:104200000EE0FB691E4A934204D91E4BFB6100235A
:10421000BB6105E07B697F22134001335B08BB6112
:104220007B681800FFF7D8FE0300FA695A627B68C2
:104230001800FFF7D1FE0300BA699A627B68180084
:10424000FFF7CAFE03002C333B610023FB603B6990
:10425000802292011343FA681A60C046062000F0DB
:1042600085FB03009800FB699A01BB69D31819000C
:1042700002F090F903001800BD4608B080BDC046AA
:10428000FEFF0000FFFF000090B583B000AF786034
:104290000A00FB1C1A70FB1C1B78002B01D00A249F
:1042A00001E080235C007B681800FFF783FE0200BA
:1042B000034B5200211CD152C046BD4603B090BDF5
:1042C0003020012080B500AF00BEC046BD4680BD95
:1042D00080B584B000AF7860074BFB607B68BB6043
:1042E000FB68802292011343BA681A60C046C04638
:1042F000BD4604B080BDC04600C0004080B584B05B
:1043000000AF78600B4BFB607B68BB60FB68C02232
:1043100092011343BA681A60C04600E0C046054BDC
:104320009B68DB437A681340F8D1C046C046BD465F
:1043300004B080BD00C0004080B586B000AF3B4BEC
:104340001800FFF7C5FF3A4B1800FFF7D7FF394BAE
:104350007B6105E07B691B6898477B6904337B615F
:104360007A69354B9A42F5D300F05CFA334B18006A
:10437000FFF7C4FF324A40239367314A5367304AFC
:1043800013672F4AD3662F4B3B6120E03B691B68C4
:10439000002B13D03B691B68012B05D02A4B2B4AFD
:1043A0002B48832100F09CF83B697B607B681800F8
:1043B000FFF7E5FD7B6808333B6108E03B69BB60C4
:1043C000BB681800FFF7C4FDBB6808333B613A695E
:1043D000204B9A42DAD3204B9B681A001F4B1800DF
:1043E0001100C0231A0002F083FD1B4B1B4A9A6088
:1043F000FBF739FF031E00D000BEFCF7C5FEFDF73A
:104400009BFCFEF795F9164BFB6005E0FB681B680B
:104410009847FB680433FB60FA68124B9A42F5D365
:10442000C046C046BD4606B080BDC046BFCDFBFEFF
:10443000FE7F3C00C81C0020D81C0020FFFFFF01AD
:1044400000F00140B01C002000110210D811021031
:1044500020110210C81C002000ED00E00000002028
:10446000D81C0020E01C002080B582B000AF78602E
:10447000FFF728FFFCE7000080B584B000AF78604C
:10448000104B1B68002B02D10E4B0F4A1A600D4BCC
:104490001B68FB600B4B1A687B68D318BB60BB685A
:1044A0000A4A9A429B415B42DBB2002B02D00123B5
:1044B0005B4203E0034BBA681A60FB681800BD4614
:1044C00004B080BDEC7300206420012000000420B3
:1044D00080B582B000AF78607B681800FFF7C4FF3A
:1044E000B0B586B002AFF860B9607A603B607B68B7
:1044F000002B01D00A4B00E00A4B7A68002A01D059
:104500007A6800E0074ABD68FC683968064801928D
:1045100000932B00220002F0BBFF0120FFF7A4FF55
:1045200064110210741102107811021080B500AFEE
:10453000014B180000F002F8A81102100FB480B56A
:1045400082B000AF0B4B180002F07EFE3B69002BDF
:104550000CD01423FB187B607A683B6911001800AB
:1045600002F064FF044B180002F06EFE0120FFF71A
:104570007BFFC046B8110210C811021080B582B08E
:1045800000AF0200FB1D1A70FB1D1B78052B03D02A
:10459000FB1D1B78042B01D1012300E000231A1C12
:1045A00001231340DBB21800BD4602B080BD0000FD
:1045B000F0B5A3B000AF3963FA62BB620F232822C3
:1045C0009B18DA19031C1370BA6A982308215B1828
:1045D000DB191B689A4205D28D4B8E4A8E482D21DD
:1045E000FFF77EFF982308229B18DB191A68BB6A25
:1045F0009A4201D9002307E1BB6A3B6200237B6238
:104600003A6A7B6A1100090EF96113001B02BB6153
:10461000982308229B18DB191B683B6100237B61F0
:104620003A697B69B869F96901F0F6FF02000B008D
:10463000130084203A1813600F2328229B18DB19DB
:104640001A7813005B009B189B00744A94466344DD
:1046500080217A1813607B181B685B683A1812680F
:104660009A4204D97B181B683A1812685A600F23C3
:1046700028229B18DB191B781800FFF77FFF031E09
:1046800019D03B6B012B16D18023FB181B68BB672D
:1046900003237B67BB6FC022920113437A6F1A60BA
:1046A000C04600E0C0468023FB181B689B680122BF
:1046B0001340F7D029E08023FB181B683B67802359
:1046C0001B01FB663B6FC02292011343FA6E1A6016
:1046D000C0460F2128268B19DB191A78504B9200FF
:1046E000D358002B11D04E4B58698B19DB191A780F
:1046F0004B4B9200D358190001F04CFF03000133DB
:10470000FB67FB6F013BFDD1FB678026BB191A6875
:10471000FB6A5B01BA667B66E0233B66BB6E1A6888
:104720007B6E53403A6E1340BA6EFA65BB65FB6D03
:10473000802252011343BA6D1A60C046C0460F234F
:1047400028229B18DB191B781800FFF717FF031EA0
:1047500023D0BB191B687B653B6B3B650323FB6464
:104760007B6D1A683B6D5340FA6C13407A6DBA64E6
:104770007B64BB6C8022520113437A6C1A60C04682
:10478000C04600E0C0468023FB181B689B680121DF
:104790003A6B91400A001340F4D080217B181B68CB
:1047A0003B6480231B01FB633B6C8022920113431B
:1047B000FA6B1A60C0467B181B6884203A1812688E
:1047C0005A60BB6ABB600023FB60BA68FB681100DB
:1047D0000D0E13001C023B181B683B6000237B601E
:1047E0003A687B682000290001F016FF02000B00E8
:1047F000100019000F2328229B18DB191A780100DA
:10480000074B9200D15001231800BD4623B0F0BDE4
:10481000E8110210E4120210FC11021000800040A6
:104820005061002080B588B002AF0C2000F0B6F9CE
:10483000FCF79CFC031E11D000237B6107E03F4B7B
:104840007A6992003E49D1507B6901337B617B6973
:10485000092BF4D9394B3B4A5A626CE03A4B00229F
:104860009A6700F0ABF9394B3B610123FB603B6970
:10487000C02292011343FA681A60C04600E0C046A5
:10488000314B5B6C012BFAD1314BBB6003237B6056
:10489000BB68C022920113437A681A60C04600E0E8
:1048A000C046294B9B6B012BFAD12A4A2A48022386
:1048B00000930623012100F09FF8284A2848052389
:1048C00000930523012100F097F8264A254B009319
:1048D0001300002202210420FFF76AFE224A224B25
:1048E00000931300002201210520FFF761FE144A06
:1048F000134B00931300002200210720FFF758FEFE
:104900000F4A0F4B00931300002200210820FFF7ED
:104910004FFE0B4A0B4B009313000022002109208D
:10492000FFF746FE104A104B0093130000220021AF
:104930000620FFF73DFEBD4606B080BD5061002059
:10494000006CDC021BB70000008000403C8000408F
:1049500030800040002F685900800240008C86475C
:1049600000C00240001BB7004059730780B582B0F9
:1049700000AF0200FB1D1A70FB1D1A78034B92005A
:10498000D3581800BD4602B080BDC046506100201B
:1049900080B584B000AF7860074BFB607B68BB607C
:1049A000FB68802292011343BA681A60C046C04671
:1049B000BD4604B080BDC04600C0004080B584B094
:1049C00000AF78600B4BFB607B68BB60FB68C0226C
:1049D00092011343BA681A60C04600E0C046054B16
:1049E0009B68DB437A681340F8D1C046C046BD4699
:1049F00004B080BD00C0004080B58EB000AFF8604C
:104A0000B9607A603B60B9680C2001F0C3FD030017
:104A10007B637B68574A934203D97B68564A93422B
:104A200005D9564B564A57481121FFF759FD796B66
:104A30000A005201521A93019B1ADB005B189B017A
:104A40001900786801F0A6FD03003B633B6B0F2B58
:104A500004D93A6BA0235B009A4205D94A4B484AD5
:104A600048481921FFF73CFD3B68002B08D03B6804
:104A7000072B05D83B6C002B02D03B6C072B05D9CC
:104A8000424B3F4A3F481C21FFF72AFD3A6C3B68E6
:104A90009A4205D93E4B3A4A3A482221FFF720FD77
:104AA0007B681B097A6B9A4205D93A4B344A3548E0
:104AB0002521FFF715FD3B681A043B6C1B031343CC
:104AC000FB62FB681B68002B15DAFB681B683F2242
:104AD0001340BA689A420ED1FB689B681B051B0DF8
:104AE0003A6B9A4207D1FB68DA68EE23DB02134087
:104AF000FA6A9A423AD0FB68274A934202D180234D
:104B00009B0101E080235B01BB62BB6A1800FFF7D9
:104B10003FFFBB6A1800FFF751FFFB68BA681A60D5
:104B2000FB683A6B9A6021237B62FB6804333B622B
:104B30007B6AFB613B6AC02292011343FA691A60E7
:104B4000C04600E0C046FB681B68002BFADAFB6831
:104B5000FA6ADA60FB680433BB6108237B61BB69D6
:104B6000C022920113437A691A6000E0C046BD4634
:104B70000EB080BD7F17B42C00105E5FF4120210DF
:104B8000301402105413021094130210B0130210C8
:104B9000FC1302101414021000C0024080B582B051
:104BA00000AF7860044B7A68802189000A43DA629A
:104BB000C046BD4602B080BD0080054080B582B0D1
:104BC00000AF0E4BAA2212011A600C4B2F22DA60A2
:104BD0000A4B7B600A4B3B607B6880229201134347
:104BE0003A681A60C046C046044B5B68002BFBDA8B
:104BF000C046C046BD4602B080BDC046004002402F
:104C000000B0FA0080B584B000AFB9607A603B6054
:104C10000F217B18021C1A707A683B689A4205D2F1
:104C2000BA687B68D3187A1812781A70C046BD46E5
:104C300004B080BD80B584B000AFB9607A603B60DD
:104C40000F23FB18021C1A70C046BD4604B080BD7D
:104C500080B584B000AFB9607A603B600F217B18EB
:104C6000021C1A7008007B181B78002B07D0BB6849
:104C70001A68BB6859683B181B7818009047C046F3
:104C8000BD4604B080BD80B584B000AF78603960A7
:104C90007B68FB6002E0FB680133FB60FB681B780C
:104CA000002B04D03B685A1E3A60002BF3D1FA68FF
:104CB0007B68D31A1800BD4604B080BD80B582B0B1
:104CC00000AF0200FB1D1A70FB1D1B782F2B05D9AE
:104CD000FB1D1B78392B01D8012300E000231A1C8F
:104CE00001231340DBB21800BD4602B080BD80B581
:104CF00084B000AF78600023FB600EE0FA68130018
:104D00009B009B185B0018007B681B68591C7A6825
:104D100011601B78C318303BFB607B681B681B78F5
:104D20001800FFF7CBFF031EE8D1FB681800BD4653
:104D300004B080BD90B587B000AFF860B9607A600C
:104D40003B607B683B617B6B0222134024D17B6B11
:104D50000122134020D1FB6A7B610AE07A68531C70
:104D60007B603B68B968FC682020A0477B69013301
:104D70007B617A693B6B9A42F0D30DE0FB6A013BA1
:104D8000FB62BA6AFB6AD31818787A68531C7B6096
:104D90003B68B968FC68A047FB6A002BEED17B6BCF
:104DA000022213400ED007E07A68531C7B603B68F8
:104DB000B968FC682020A0477A683B69D31A3A6B2F
:104DC0009A42F1D87B681800BD4607B090BD90B5F7
:104DD00089B004AFF860B9607A603B60BB6B0222B7
:104DE000134034D17B6B002B17D0BB6B01221340D7
:104DF00013D02823FB181B78002B03D1BB6B0C228C
:104E000013400AD07B6B013B7B6306E07B6A5A1C34
:104E10007A623A6AD31830221A707A6A3B6B9A42E5
:104E20000AD27B6A1F2BF1D906E07B6A5A1C7A6290
:104E30003A6AD31830221A70BB6B0122134006D095
:104E40007A6A7B6B9A4202D27B6A1F2BEDD9BB6BCD
:104E50001022134056D0BA6B8023DB00134016D1CA
:104E60007B6A002B13D07A6A3B6B9A4203D07A6A32
:104E70007B6B9A420BD17B6A013B7B627B6A002B86
:104E800005D0FB6A102B02D17B6A013B7B62FB6A77
:104E9000102B0ED1BB6B202213400AD17B6A1F2B33
:104EA00007D87B6A5A1C7A623A6AD31878221A7039
:104EB0001EE0FB6A102B0ED1BB6B202213400AD0E0
:104EC0007B6A1F2B07D87B6A5A1C7A623A6AD3180E
:104ED00058221A700CE0FB6A022B09D17B6A1F2B47
:104EE00006D87B6A5A1C7A623A6AD31862221A7010
:104EF0007B6A1F2B06D87B6A5A1C7A623A6AD318DF
:104F000030221A707B6A1F2B23D82823FB181B78AA
:104F1000002B07D07B6A5A1C7A623A6AD3182D227A
:104F20001A7016E0BB6B0422134007D07B6A5A1C30
:104F30007A623A6AD3182B221A700AE0BB6B0822F5
:104F4000134006D07B6A5A1C7A623A6AD318202230
:104F50001A703C687A68B968F868BB6B03937B6B1E
:104F600002937B6A01933B6A00932300FFF7E2FE02
:104F700003001800BD4605B090BD90B597B008AFCE
:104F8000F860B9607A603B6000237B63BB6C002BE8
:104F900003D1FB6D10229343FB65FA6D8023DB0088
:104FA000134002D0BB6C002B33D0BB6C396D1800A2
:104FB00001F0F0FA0B001A0033217B181A700A0076
:104FC000BB181B78092B04D8BB181B783033DAB216
:104FD0000DE0FB6D2022134001D0412300E061234E
:104FE0003322BA1812789B18DBB20A3BDAB27B6B19
:104FF000591C796310217918CA54396DB86C01F0C5
:10500000C9FA0300BB64BB6C002B02D07B6B1F2B67
:10501000CBD93C687A68B968F868FB6D0693BB6DBC
:1050200005937B6D04933B6D03934C23FB181B7816
:1050300002937B6B01931023FB1800932300FFF76F
:10504000C6FE03001800BD460FB090BDB0B596B0C7
:1050500008AFF860B9607A603B6000237B63BB6C8B
:10506000FA6C134303D1BB6E10229343BB66BA6E36
:105070008023DB00134003D0BB6CFA6C13433AD09F
:10508000B86CF96CBA6DFB6D01F0C6FA100019002E
:1050900033243B19021C1A702200BB181B78092B01
:1050A00004D8BB181B783033DAB20DE0BB6E202277
:1050B000134001D0412300E061233322BA18127853
:1050C0009B18DBB20A3BDAB27B6B591C7963102167
:1050D0007918CA54BA6DFB6DB86CF96C01F09CFA82
:1050E00002000B00BA64FB64BB6CFA6C134302D081
:1050F0007B6B1F2BC4D9BB6D3D687C68B968F868B1
:10510000BA6E06927A6E05923A6E04920393502319
:10511000FB181B7802937B6B01931023FB18009301
:105120002B002200FFF753FE03001800BD460EB00F
:10513000B0BD0000F0B59DB006AFF860B9607A6010
:105140003B6000237B6500220023BA63FB633A6F58
:105150007B6F386F796F01F0D6FC031E12D03C686C
:105160007A68B968F8688023FB181B680393FB6FA3
:10517000029303230193C54B00932300FFF7DAFD4D
:1051800003001DE201225242C14B386F796F01F0DA
:10519000A7FC031E12D03C687A68B968F8688023BF
:1051A000FB181B680393FB6F029304230193B94B15
:1051B00000932300FFF7BEFD030001E201225242EB
:1051C000B54B386F796F01F099FC031E24D0802312
:1051D000FB181B680422134001D0B04B00E0B04B19
:1051E0008022BA18126804210A4001D0042200E08B
:1051F00003223E687D68BC68F868802179180968D8
:105200000391F96F02910192009333002A0021006B
:10521000FFF790FD0300D3E10022A24B386F796FB6
:1052200001F06CFC031E07D100229F4B386F796F91
:1052300001F056FC031E15D03D687C68B968F8681B
:105240008023FB181B680493FB6F0393BB6F0293CF
:105250003A6F7B6F009201932B00220000F0B4F9AB
:105260000300ADE153243B1900221A7000220023F1
:10527000386F796F01F034FC031E0CD03B1901220A
:105280001A703A6F7B6F0020002101F0C6FB02000C
:105290000B003A677B678023FB181A688023DB00CA
:1052A00013400CD10623BB6709E07B6D5A1C7A655D
:1052B0001022BA183021D154BB6F013BBB677B6D04
:1052C0001F2B02D8BB6F092BEFD8386F796F01F015
:1052D00045FC0300FB64F86C01F028FC02000B00A5
:1052E000386F796F01F099FB02000B001000190074
:1052F0006E4ABB6FDB00D3181A685B6801F0B1FB24
:1053000002000B003A637B63386B796B01F04AFC57
:105310000300BB64B86C01F005FC02000B00386BA5
:10532000796B01F07AFB02000B00BA63FB63002289
:105330005F4BB86BF96B01F0E1FB031E15D0BB6C42
:105340000133BB64B86C01F0EDFB584ABB6FDB0066
:10535000D3181A685B6801F0C9FB031E17D000233D
:10536000BB64FB6C0133FB6411E00022504BB86B53
:10537000F96B01F0B5FB031E09D1BB6C002B03D008
:10538000BB6C0122134002D0BB6C0133BB64BB6F0A
:10539000002B3BD1F86C01F0C9FB02000B00386F09
:1053A000796F01F03AFB02000B00BA63FB63012343
:1053B0001C1C00223E4BB86BF96B01F091FB031EE5
:1053C00001D100231C1CE3B201225340DBB2002BAD
:1053D00000D188E001231C1C0022354BB86BF96B0F
:1053E00001F08CFB031E01D100231C1CE3B201223F
:1053F0005340DBB2002B00D175E0FB6C012213405F
:1054000000D170E0FB6C0133FB646CE0BB6F7B642C
:105410001BE07B6C013B7B64BB6C0A21180001F034
:10542000B9F80B00DAB27B6D591C79653032D1B214
:105430001022BA18D154BB6C0A21180001F0AAF846
:105440000300BB64BB6C002B03D07B6D1F2BE0D92A
:1054500008E0C04606E07B6D5A1C7A651022BA1837
:105460003021D1547B6D1F2B04D87B6C5A1E7A647B
:10547000002BF0D17B6D1F2B35D87B6D5A1C7A65C4
:105480001022BA182E21D1542DE0C0463C1402102F
:10549000FFFFEFFF40140210FFFFEF7F48140210E0
:1054A0005014021065CDCD4165CDCDC13816021026
:1054B0000000E03FFB6C0A21180001F043F80B00EC
:1054C000DAB27B6D591C79653032D1B21022BA182C
:1054D000D154FB6C0A21180001F034F80300FB647E
:1054E000FB6C002B03D07B6D1F2BE3D900E0C04683
:1054F00080217B181B680222134023D17B181B6874
:10550000012213401ED0FB6F002B14D05323FB1835
:105510001B78002B04D17B181B680C2213400AD087
:10552000FB6F013BFB6706E07B6D5A1C7A6510221E
:10553000BA183021D1547A6DFB6F9A4202D27B6D3A
:105540001F2BF1D97B6D1F2B27D85323FB181B78FA
:10555000002B07D07B6D5A1C7A651022BA182D21BA
:10556000D1541AE08023FB181B680422134007D093
:105570007B6D5A1C7A651022BA182B21D1540CE08D
:105580008023FB181B680822134006D07B6D5A1C31
:105590007A651022BA182021D1543C687A68B9681B
:1055A000F8688023FB181B680393FB6F02937B6DE5
:1055B00001931023FB1800932300FFF7BBFB0300AC
:1055C0001800BD4617B0F0BDF0B5A7B006AF7864BF
:1055D0003964FA63BB639826BB191A685B68B9190A
:1055E0000868496801F08FFA031E13D10122524264
:1055F000D94BB9190868496801F080FA031E09D12E
:1056000001225242D54BB9190868496801F068FA7D
:10561000031E1BD0BD6BFC6B396C786CA823FB1888
:105620001B680493A423FB181B680393A023FB1897
:105630001B6802939823FB181A685B680092019319
:105640002B002200FFF776FD030081E23B23382286
:105650009B18DE190123FB7300220023982179187F
:105660000868496801F03CFA031E01D10023FB736E
:10567000FB7B33703B2338229B18DB191B78002BF4
:105680000FD098217B181B683B609C23FB181A687D
:1056900080231B0653407B603A687B6879180A6058
:1056A0004B60A823FB181A688023DB00134003D14A
:1056B0000623A022BA1813609826BB191A685B68E3
:1056C000BA64FB64BA6CFB6C1100194300D108E1A9
:1056D000BA6CFB6C1B0DBB620023FB62BB6A5B05F3
:1056E0005B0D9F4A94466344FB66BA6CFB6C0021D9
:1056F0001000884304001B031D0B002323433B625F
:10570000984B2B437B623B6A7C6ABB64FC64F86EFB
:1057100001F00CFA944A954B01F0A3F902000B003A
:1057200010001900924A934B01F07CF902000B0023
:1057300014001D00B86CF96C00228F4B01F06DF95C
:1057400002000B00100019008C4A8D4B01F089F902
:1057500002000B002000290001F064F902000B0098
:105760001000190001F0FAF90300FB67F86F01F06F
:10577000DDF9844A844B01F074F902000B0010003B
:1057800019000022814B01F04DF902000B001000BE
:10579000190001F0E3F90300FB66F86F01F0C6F9A8
:1057A0007B4A7C4B01F05DF902000B0014001D00E8
:1057B000F86E01F0BBF9784A784B01F052F902001B
:1057C0000B002000290001F028F902000B003A66C6
:1057D0007B663A6E7B6E386E796E01F042F902009C
:1057E0000B00BA65FB65FB6E6D4A94466344BB6172
:1057F000DB17FB61BB691B057B6100233B613B69D8
:105800007C69BB64FC64BC6CFD6C386E796E020014
:105810000B0001F007F902000B00BA62FB623A6E5E
:105820007B6E00208021C90501F0F7F802000B0013
:105830003A627B6200225B4BB86DF96D01F0F7F8BC
:1058400002000B00100019000022574B01F0EAF88B
:1058500002000B00B86DF96D01F0E9F802000B00D1
:10586000100019000022514B01F0DCF802000B007F
:10587000B86DF96D01F0DBF802000B00386A796A47
:1058800001F0D0F802000B00B86AF96A01F0CFF815
:1058900002000B00100019000022324B01F0C2F888
:1058A00002000B002000290001F0DBF802000B00D1
:1058B000BA64FB64BA6CFB6CB9190868496801F0FA
:1058C0000FF9031E0FD0FB6F013BFB67B86CF96C3F
:1058D0000022354B01F0ABF802000B00BA64FB6408
:1058E00001E00023FB67FB6F632B04DCFB6F63337A
:1058F00001DB042300E00523BB67A823FB181A681B
:1059000080231B01134000D17AE0BA6CFB6C1100BC
:10591000194312D0264A274B982439190868496838
:1059200001F0E4F8031E5AD00022234B391908680D
:10593000496801F0D5F8031E51D0A0217B181B68DF
:10594000FA6F9A423ADA7B181A68FB6FD31A013B56
:105950007A18136036E0C046FFFFEF7FFFFFEFFFCE
:1059600001FCFFFF0000F03FFB799F501344D33F41
:10597000B3C8608B288AC63F0000F83F61436F635D
:10598000A787D23F71A379094F930A400000E03FF7
:105990001655B5BBB16B0240EF39FAFE422EE63F19
:1059A000FF03000000002C400000244000001840CD
:1059B0002D431CEBE2361A3F80842E410023A022A7
:1059C000BA181360A8217B181B688022D2001343E9
:1059D0007A1813600023BB670023FB6710E0A02147
:1059E0007B181B68002B0BD0A823FB181A68802398
:1059F000DB00134004D07B181B68013B7A1813604E
:105A0000A422BB181B687B67BB181A68BB6F9A423D
:105A100004D97A6FBB6FD31A7B6701E000237B67E1
:105A2000A823FB181B680222134004D0BB6F002B75
:105A300001D000237B67FB6F002B0CD0BA6CFB6C92
:105A4000982439190868496800F0F1FF02000B003A
:105A500039190A604B60FB6B7B653B2338229B182E
:105A6000DB191B78002B0BD09823FB181B683B63BA
:105A70009C23FB181B68802212065A407A6305E0BB
:105A80009823FB185C681B683B637C63A823FA18A7
:105A90001368314A1340BC6BFA6B396C786C049311
:105AA0007B6F0393A0257D192B6802933D6B7E6B62
:105AB000009501962300FFF73DFB0300FB63BB6FDE
:105AC000002B44D0A823FB181B682022134001D0D0
:105AD000452000E06520FA6B531CFB63BB6B396CFF
